:100000000C9434000C94FA000C9451000C945100A0
:100010000C9451000C9451000C94D4000C94510099
:100020000C9451000C946E010C9451000C945100EE
:100030000C9451000C9451000C9451000C945100FC
:100040000C9451000C9451000C9451000C945100EC
:100050000C9451000C9451000C9451000C945100DC
:100060000C9451000C94510011241FBECFEFD8E026
:10007000DEBFCDBF11E0A0E0B1E0E4E9FEE002C0E8
:1000800005900D92A237B107D9F721E0A2E7B1E0C0
:1000900001C01D92A039B207E1F70E94D4010C946F
:1000A00048070C940000CF92DF92EF92FF92CF931B
:1000B00060917E0170917F0180918001909181011A
:1000C000C091B2000E9454032CE53FE842E851E49D
:1000D0000E94E0036B017C016C2F70E080E090E0F7
:1000E0000E9454032FE632E143E85DE30E94E003FF
:1000F0009B01AC01C701B6010E94B0020E941C0323
:10010000CF91FF90EF90DF90CF900895E0910201A2
:10011000F0910301882319F08081806202C0808100
:100120008F7D8083089583B7817F826083BF8895A8
:100130000895F894A895E0E6F0E0808188618083D6
:1001400086E480830895529881E08DBBE9E6F0E073
:1001500080818E7F80838081826080831092820183
:1001600010928301109284011092850110928601F1
:100170001092870110928801109289010895E1EB95
:10018000F0E08081876080831092B200E0E7F0E0C9
:1001900080818160808310927E0110927F01109295
:1001A00080011092810108951F920F920FB60F9255
:1001B00011242F933F934F935F936F937F938F936C
:1001C0009F93AF93BF93EF93FF9386E491E00E94D8
:1001D0006304FF91EF91BF91AF919F918F917F91B8
:1001E0006F915F914F913F912F910F900FBE0F90A4
:1001F0001F9018951F920F920FB60F921124CF9255
:10020000DF92EF92FF920F931F932F933F934F93A1
:100210005F936F937F938F939F93AF93BF93EF936E
:10022000FF930E9453000091860110918701209155
:100230008801309189016B017C01C01AD10AE20A60
:10024000F30A97018601063911052105310578F178
:100250006093860170938701809388019093890150
:1002600060937A0170937B0180937C0190937D0170
:10027000E0910201F091030180818062808380918E
:100280007A0190917B01A0917C01B0917D01BF9397
:10029000AF939F938F938AE491E09F938F930E94F3
:1002A0004D040F900F900F900F900F900F90FF91B3
:1002B000EF91BF91AF919F918F917F916F915F91DE
:1002C0004F913F912F911F910F91FF90EF90DF90F1
:1002D000CF900F900FBE0F901F9018951F920F9206
:1002E0000FB60F9211242F933F934F935F936F9309
:1002F0007F938F939F93AF93BF93EF93FF930E944E
:100300005300609372017093730180937401909312
:10031000750180917E0190917F01A0918001B09143
:1003200081010196A11DB11D80937E0190937F01F3
:10033000A0938001B0938101FF91EF91BF91AF91A4
:100340009F918F917F916F915F914F913F912F91ED
:100350000F900FBE0F901F9018951092C50087E662
:100360008093C400E0ECF0E080818D7F808386E0A4
:100370008093C20088E18093C1000895CF93C82F75
:100380008A3019F48DE00E94BE018091C00085FF83
:10039000FCCFC093C600CF9108958091C00087FF25
:1003A000FCCF8091C6000895CF93DF9300D000D09A
:1003B000CDB7DEB7E0910001F0910101808180624C
:1003C00080830E94A3000E94BF000E94AD0182E1D1
:1003D00091E090938D0180938C0184E091E0909363
:1003E0008B0180938A0182E291E00E94630483B7CB
:1003F000817F826083BF789484E3A82E81E0B82E49
:1004000080E00E9486000E945300C0907601D09048
:100410007701E0907801F0907901009172011091DC
:1004200073012091740130917501DC01CB01801BB7
:10043000910BA20BB30B8C0D9D1DAE1DBF1D8093A8
:10044000760190937701A0937801B0937901209180
:10045000760130917701409178015091790129839B
:100460003A834B835C830E9453006B017C01A4E6BA
:10047000B0E029813A814B815C810E947302A7011F
:1004800096010E9454025F934F933F932F93BF9224
:10049000AF920E944D040E9493000F900F900F9016
:1004A0000F900F900F90ACCF052E97FB1EF4009489
:1004B0000E946B0257FD07D00E947E0207FC03D00A
:1004C0004EF40C946B0250954095309521953F4F1A
:1004D0004F4F5F4F089590958095709561957F4F30
:1004E0008F4F9F4F08950E94A002A59F900DB49F2B
:1004F000900DA49F800D911D11240895A1E21A2E44
:10050000AA1BBB1BFD010DC0AA1FBB1FEE1FFF1FB7
:10051000A217B307E407F50720F0A21BB30BE40B07
:10052000F50B661F771F881F991F1A9469F760954E
:100530007095809590959B01AC01BD01CF01089508
:10054000A29FB001B39FC001A39F700D811D112414
:10055000911DB29F700D811D1124911D0895505859
:10056000BB27AA270E94C7020C94A6030E949803E7
:1005700038F00E949F0320F039F49F3F19F426F4CD
:100580000C9495030EF4E095E7FB0C948F03E92F90
:100590000E94B70358F3BA176207730784079507D9
:1005A00020F079F4A6F50C94D9030EF4E0950B2E07
:1005B000BA2FA02D0B01B90190010C01CA01A001B5
:1005C0001124FF27591B99F0593F50F4503E68F110
:1005D0001A16F040A22F232F342F4427585FF3CF51
:1005E000469537952795A795F0405395C9F77EF422
:1005F0001F16BA0B620B730B840BBAF09150A1F06B
:10060000FF0FBB1F661F771F881FC2F70EC0BA0FF0
:10061000621F731F841F48F4879577956795B79578
:10062000F7959E3F08F0B0CF9395880F08F0992773
:10063000EE0F9795879508950E9423036894B11152
:100640000C94DA0308950E94BF0388F09F5798F036
:10065000B92F9927B751B0F0E1F0660F771F881FC7
:10066000991F1AF0BA95C9F714C0B13091F00E94E1
:10067000D903B1E008950C94D903672F782F882708
:10068000B85F39F0B93FCCF3869577956795B39508
:10069000D9F73EF490958095709561957F4F8F4F77
:1006A0009F4F0895E89409C097FB3EF4909580957C
:1006B000709561957F4F8F4F9F4F9923A9F0F92F28
:1006C00096E9BB279395F695879577956795B795A6
:1006D000F111F8CFFAF4BB0F11F460FF1BC06F5F8C
:1006E0007F4F8F4F9F4F16C0882311F096E911C09E
:1006F000772321F09EE8872F762F05C0662371F0BF
:1007000096E8862F70E060E02AF09A95660F771FD2
:10071000881FDAF7880F9695879597F9089597F9C6
:100720009F6780E870E060E008959FEF80EC089597
:1007300000240A94161617061806090608950024C0
:100740000A9412161306140605060895092E03943A
:10075000000C11F4882352F0BB0F40F4BF2B11F4AE
:1007600060FF04C06F5F7F4F8F4F9F4F089557FD0D
:100770009058440F551F59F05F3F71F04795880F0F
:1007800097FB991F61F09F3F79F0879508951216A6
:1007900013061406551FF2CF4695F1DF08C0161652
:1007A00017061806991FF1CF869571056105089403
:1007B0000895E894BB2766277727CB0197F908951A
:1007C0000E94F3030C94A6030E94980338F00E9441
:1007D0009F0320F0952311F00C948F030C94950344
:1007E00011240C94DA030E94B70370F3959FC1F3B0
:1007F000950F50E0551F629FF001729FBB27F00DCF
:10080000B11D639FAA27F00DB11DAA1F649F662723
:10081000B00DA11D661F829F2227B00DA11D621F72
:10082000739FB00DA11D621F839FA00D611D221F2C
:10083000749F3327A00D611D231F849F600D211D10
:10084000822F762F6A2F11249F5750409AF0F1F093
:1008500088234AF0EE0FFF1FBB1F661F771F881FFC
:1008600091505040A9F79E3F510580F00C948F03A2
:100870000C94DA035F3FE4F3983ED4F386957795C2
:100880006795B795F795E7959F5FC1F7FE2B880FA2
:10089000911D9695879597F90895A0E0B0E0E3E55E
:1008A000F4E00C942107AE014B5F5F4FFA016191B8
:1008B0007191AF0180918C0190918D010E94930400
:1008C000E2E00C943D070F931F93CF93DF93E091E9
:1008D0008C01F0918D01238121FF1BC08C01D0E0A0
:1008E000C0E0F80181918F0160918C0170918D01C0
:1008F000DB011896ED91FC911997882331F0099549
:10090000892B79F3DFEFCFEFECCF8AE00995892BC4
:1009100019F08FEF9FEF02C08D2F9C2FDF91CF91A9
:100920001F910F910895ACE0B0E0E9E9F4E00C9478
:1009300011077C016B018A01FC01178216828381F9
:1009400081FFBDC1CE0101964C01F7019381F601F3
:1009500093FD859193FF81916F01882309F4ABC1C9
:10096000853239F493FD859193FF81916F01853232
:1009700029F4B70190E00E947B06E7CF512C312C7F
:1009800020E02032A0F48B3269F030F4803259F04C
:10099000833269F420612CC08D3239F0803339F410
:1009A000216026C02260246023C0286021C027FD6A
:1009B00027C030ED380F3A3078F426FF06C0FAE051
:1009C0005F9E300D1124532E13C08AE0389E300DE7
:1009D0001124332E20620CC08E3221F426FD6BC10F
:1009E000206406C08C3611F4206802C0883641F4B9
:1009F000F60193FD859193FF81916F018111C1CF24
:100A0000982F9F7D9554933028F40C5F1F4FFFE380
:100A1000F9830DC0833631F0833771F0833509F0E7
:100A20005BC022C0F801808189830E5F1F4F442480
:100A30004394512C540115C03801F2E06F0E711C23
:100A4000F801A080B18026FF03C0652D70E002C0D0
:100A50006FEF7FEFC5012C870E9470062C01830188
:100A60002C852F77222E17C03801F2E06F0E711CF3
:100A7000F801A080B18026FF03C0652D70E002C0A0
:100A80006FEF7FEFC5012C870E9465062C012C8536
:100A90002068222E830123FC1BC0832D90E0481682
:100AA0005906B0F4B70180E290E00E947B063A94C8
:100AB000F4CFF50127FC859127FE81915F01B701F5
:100AC00090E00E947B0631103A94F1E04F1A5108F1
:100AD0004114510471F7E5C0843611F0893639F5B7
:100AE000F80127FF07C060817181828193810C5FCB
:100AF0001F4F08C060817181072E000C880B990B75
:100B00000E5F1F4F2F76722E97FF09C0909580952C
:100B1000709561957F4F8F4F9F4F2068722E2AE00E
:100B200030E0A4010E94B306A82EA81844C085375F
:100B300029F42F7EB22E2AE030E025C0F22FF97F73
:100B4000BF2E8F36C1F018F4883579F0B4C08037E5
:100B500019F0883721F0AFC02F2F2061B22EB4FEDC
:100B60000DC08B2D8460B82E09C024FF0AC09F2FB2
:100B70009660B92E06C028E030E005C020E130E0E4
:100B800002C020E132E0F801B7FE07C06081718148
:100B9000828193810C5F1F4F06C06081718180E06C
:100BA00090E00E5F1F4FA4010E94B306A82EA81864
:100BB000FB2DFF777F2E76FE0BC0372D3E7FA514D1
:100BC00050F474FE0AC072FC08C0372D3E7E05C08A
:100BD000BA2C372D03C0BA2C01C0B52C34FF0DC080
:100BE000FE01EA0DF11D8081803311F4397E09C0C8
:100BF00032FF06C0B394B39404C0832F867809F003
:100C0000B39433FD13C030FF06C05A2CB31418F44C
:100C1000530C5B18B32CB31468F4B70180E290E076
:100C20003C870E947B06B3943C85F5CFB31410F447
:100C30003B1801C0312C34FF12C0B70180E390E0B3
:100C40003C870E947B063C8532FF17C031FD03C004
:100C500088E790E002C088E590E0B7010CC0832FE0
:100C6000867859F031FF02C08BE201C080E237FD87
:100C70008DE2B70190E00E947B06A51438F4B7011D
:100C800080E390E00E947B065A94F7CFAA94F40187
:100C9000EA0DF11D8081B70190E00E947B06A11052
:100CA000F5CF332009F451CEB70180E290E00E94E5
:100CB0007B063A94F6CFF7018681978102C08FEFC9
:100CC0009FEF2C96E2E10C942D07FC0105906150FA
:100CD00070400110D8F7809590958E0F9F1F089552
:100CE000FC016150704001900110D8F780959095FB
:100CF0008E0F9F1F08950F931F93CF93DF93FB01D8
:100D0000238121FD03C08FEF9FEF28C022FF16C073
:100D100046815781248135814217530744F4A081CD
:100D2000B1819D012F5F3F4F318320838C932681BA
:100D300037812F5F3F4F3783268310C0EB01092F88
:100D4000182F0084F185E02D0995892BE1F68E811D
:100D50009F8101969F838E83812F902FDF91CF916A
:100D60001F910F910895FA01AA27283051F12031DF
:100D700081F1E8946F936E7F6E5F7F4F8F4F9F4F2F
:100D8000AF4FB1E03ED0B4E03CD0670F781F891F71
:100D90009A1FA11D680F791F8A1F911DA11D6A0F3F
:100DA000711D811D911DA11D20D009F468943F91F2
:100DB0002AE0269F11243019305D3193DEF6CF01F1
:100DC0000895462F4770405D4193B3E00FD0C9F7B7
:100DD000F6CF462F4F70405D4A3318F0495D31FD24
:100DE0004052419302D0A9F7EACFB4E0A695979577
:100DF000879577956795BA95C9F70097610571054D
:100E000008959B01AC010A2E069457954795379596
:100E10002795BA95C9F7620F731F841F951FA01DF0
:100E200008952F923F924F925F926F927F928F928E
:100E30009F92AF92BF92CF92DF92EF92FF920F9369
:100E40001F93CF93DF93CDB7DEB7CA1BDB0B0FB673
:100E5000F894DEBF0FBECDBF09942A883988488830
:100E60005F846E847D848C849B84AA84B984C884C6
:100E7000DF80EE80FD800C811B81AA81B981CE0FBD
:100E8000D11D0FB6F894DEBF0FBECDBFED010895A2
:040E9000F894FFCF04
:100E94002400250000000001000000000000CD0136
:100EA40000000000000200000000BE01000000007D
:100EB40096005468697320697320746865205374BC
:100EC400617274004163746976652054696D653A92
:100ED40020256C640A005744540054696D652069E8
:100EE4006E206D696C6C697365636F6E64732073D7
:100EF400696E636520626F6F743A20256C640A2002
:020F04000000EB
:00000001FF
