:100000000C9434000C94FA000C9451000C945100A0
:100010000C9451000C9451000C94D4000C94510099
:100020000C9451000C946A010C9451000C945100F2
:100030000C9451000C9451000C9451000C945100FC
:100040000C9451000C9451000C9451000C945100EC
:100050000C9451000C9451000C9451000C945100DC
:100060000C9451000C94510011241FBECFEFD8E026
:10007000DEBFCDBF11E0A0E0B1E0E8EEFEE002C0DF
:1000800005900D92AE3DB107D9F711E0AEEDB1E0AC
:1000900001C01D92A83FB107E1F70E94B6010C9480
:1000A00072070C940000CF92DF92EF92FF92CF93F1
:1000B000C091B2006091E6017091E7018091E80182
:1000C0009091E9010E9493032CE53FE842E851E456
:1000D0000E941F046B017C016C2F70E080E090E0B7
:1000E0000E9493032FE632E143E85DE30E941F0480
:1000F0009B01AC01C701B6010E94FC020E94600393
:10010000CF91FF90EF90DF90CF900895E0910301A1
:10011000F0910401882319F08081806202C08081FF
:100120008F7D8083089583B7817F826083BF8895A8
:100130000895F894A895E0E6F0E0808188618083D6
:1001400086E480830895529881E08DBBE9E6F0E073
:1001500080818E7F80838081826080831092EA011B
:100160001092EB011092EC011092ED011092EE0151
:100170001092EF011092F0011092F1010895E1EB5D
:10018000F0E08081876080831092B200E0E7F0E0C9
:100190008081816080831092E6011092E7011092C5
:1001A000E8011092E90108951F920F920FB60F9285
:1001B00011242F933F934F935F936F937F938F936C
:1001C0009F93AF93BF93EF93FF938AEC91E00E94CC
:1001D0009604FF91EF91BF91AF919F918F917F9185
:1001E0006F915F914F913F912F910F900FBE0F90A4
:1001F0001F9018951F920F920FB60F921124CF9255
:10020000DF92EF92FF922F933F934F935F936F9301
:100210007F938F939F93AF93BF93EF93FF930E942E
:1002200053006B017C018091EE019091EF01A09150
:10023000F001B091F101A7019601281B390B4A0B7F
:100240005B0B263931054105510540F0C092DE01B6
:10025000D092DF01E092E001F092E1018091E101B2
:100260008F938091E0018F938091DF018F93809134
:10027000DE018F938EEC91E09F938F930E94820416
:10028000C092EE01D092EF01E092F001F092F10104
:10029000E0910301F09104018081806280830F90DE
:1002A0000F900F900F900F900F90FF91EF91BF91D3
:1002B000AF919F918F917F916F915F914F913F91FE
:1002C0002F91FF90EF90DF90CF900F900FBE0F9087
:1002D0001F9018951F920F920FB60F9211248F93B3
:1002E0009F93AF93BF938091E6019091E701A09116
:1002F000E801B091E9010196A11DB11D8093E601CD
:100300009093E701A093E801B093E901BF91AF9109
:100310009F918F910F900FBE0F901F901895109284
:10032000C50087E68093C400E0ECF0E080818D7F1B
:10033000808386E08093C20088E18093C1000895A5
:10034000CF93C82F8A3019F48DE00E94A0018091CC
:10035000C00085FFFCCFC093C600CF910895809167
:10036000C00087FFFCCF8091C6000895CF93DF9334
:1003700000D000D0CDB7DEB7E0910101F0910201CD
:100380008081806280830E94A3000E94BF000E943F
:100390008F0183E191E09093F5018093F40185E072
:1003A00091E09093F3018093F20183E291E00E9447
:1003B000960483B7817F826083BF7894C12CD12C4F
:1003C000760109E511E08FE8282E81E0382EFF92B2
:1003D000EF92DF92CF928091E1018F938091E001C3
:1003E0008F938091DF018F938091DE018F93A5E33E
:1003F000B1E0BF93AF930E9482044090DE01509021
:10040000DF016090E0017090E1010FB6F894DEBF6B
:100410000FBECDBFC414D504E604F704C4F683E5CB
:1004200091E00E94960480E00E9486000E945300A2
:100430006B017C01FF92EF92DF926F931F930F93FA
:100440000E9482048091E1018F938091E0018F935B
:100450008091DF018F938091DE018F93A5E6B1E05B
:10046000BF93AF930E9482048091E5018F938091A6
:10047000E4018F938091E3018F938091E2018F9348
:10048000A7E7B1E0BF93AF930E9482048090DE01A2
:100490009090DF01A090E001B090E1018091E20135
:1004A0009091E301A091E401B091E501881A990AC5
:1004B000AA0ABB0ABF92AF929F928F923F922F924D
:1004C0000E948204A7019601281939094A095B098B
:1004D0005F934F933F932F93A6EAB1E0BF93AF93FF
:1004E00029833A834B835C830E948204A4E6B0E0B4
:1004F00029813A814B815C810E94A002A70196016B
:100500000E94AB025F934F933F932F93A9EBB1E00F
:10051000BF93AF930E9482040FB6F894DEBF0FBE64
:10052000CDBF0E9453006093E2017093E30180937A
:10053000E4019093E5010E9493007301620147CFAB
:100540000E94CA02A59F900DB49F900DA49F800D9C
:10055000911D11240895052E97FB1EF400940E940E
:10056000C20257FD07D00E94D90207FC03D04EF407
:100570000C94C20250954095309521953F4F4F4FB6
:100580005F4F089590958095709561957F4F8F4F3F
:100590009F4F0895A29FB001B39FC001A39F700D0C
:1005A000811D1124911DB29F700D811D1124911D7B
:1005B0000895A1E21A2EAA1BBB1BFD010DC0AA1FA4
:1005C000BB1FEE1FFF1FA217B307E407F50720F0BC
:1005D000A21BB30BE40BF50B661F771F881F991F37
:1005E0001A9469F760957095809590959B01AC0180
:1005F000BD01CF0108955058BB27AA270ED0E5C0F2
:10060000D6D030F0DBD020F031F49F3F11F41EF44F
:10061000CBC00EF4E095E7FBC1C0E92FE7D080F333
:10062000BA17620773078407950718F071F49EF5EF
:10063000FFC00EF4E0950B2EBA2FA02D0B01B901CF
:1006400090010C01CA01A0011124FF27591B99F048
:10065000593F50F4503E68F11A16F040A22F232F54
:10066000342F4427585FF3CF469537952795A795A4
:10067000F0405395C9F77EF41F16BA0B620B730B4B
:10068000840BBAF09150A1F0FF0FBB1F661F771FBC
:10069000881FC2F70EC0BA0F621F731F841F48F471
:1006A000879577956795B795F7959E3F08F0B3CFF7
:1006B0009395880F08F09927EE0F979587950895E1
:1006C00004D06894B111B5C0089598D088F09F57B0
:1006D00090F0B92F9927B751A0F0D1F0660F771F8E
:1006E000881F991F1AF0BA95C9F712C0B13081F06E
:1006F0009FD0B1E008959CC0672F782F8827B85FFE
:1007000039F0B93FCCF3869577956795B395D9F7CE
:100710003EF490958095709561957F4F8F4F9F4FD8
:100720000895E89409C097FB3EF4909580957095E4
:1007300061957F4F8F4F9F4F9923A9F0F92F96E92D
:10074000BB279395F695879577956795B795F111A2
:10075000F8CFFAF4BB0F11F460FF1BC06F5F7F4F3F
:100760008F4F9F4F16C0882311F096E911C0772351
:1007700021F09EE8872F762F05C0662371F096E85A
:10078000862F70E060E02AF09A95660F771F881F29
:10079000DAF7880F9695879597F9089597F99F67E7
:1007A00080E870E060E008959FEF80EC08950024F9
:1007B0000A941616170618060906089500240A94C6
:1007C00012161306140605060895092E0394000C4C
:1007D00011F4882352F0BB0F40F4BF2B11F460FFDB
:1007E00004C06F5F7F4F8F4F9F4F089557FD905804
:1007F000440F551F59F05F3F71F04795880F97FBE5
:10080000991F61F09F3F79F087950895121613069E
:100810001406551FF2CF4695F1DF08C016161706CD
:100820001806991FF1CF8695710561050894089502
:10083000E894BB2766277727CB0197F908950BD05B
:10084000C4CFB5DF28F0BADF18F0952309F0A6CFA2
:10085000ABCF1124EECFCADFA0F3959FD1F3950F54
:1008600050E0551F629FF001729FBB27F00DB11D34
:10087000639FAA27F00DB11DAA1F649F6627B00DC4
:10088000A11D661F829F2227B00DA11D621F739FAD
:10089000B00DA11D621F839FA00D611D221F749FBB
:1008A0003327A00D611D231F849F600D211D822F02
:1008B000762F6A2F11249F5750408AF0E1F0882349
:1008C0004AF0EE0FFF1FBB1F661F771F881F915056
:1008D0005040A9F79E3F510570F060CFAACF5F3F0F
:1008E000ECF3983EDCF3869577956795B795F79589
:1008F000E7959F5FC1F7FE2B880F911D9695879511
:1009000097F90895A0E0B0E0E8E8F4E00C944B0714
:10091000FE01359661917191AF018091F401909142
:10092000F5010E94C304E2E00C9467070F931F9344
:10093000CF93DF93E091F401F091F501238121FF42
:100940001BC0EC0100E010E089916091F40170910E
:10095000F501DB011896ED91FC911997882331F090
:100960000995892B89F30FEF1FEFEECF8AE00995E8
:10097000892B11F4C80102C08FEF9FEFDF91CF9157
:100980001F910F910895ACE0B0E0E9ECF4E00C9415
:100990003B077C016B018A01FC011782168283816F
:1009A00081FFBDC1CE0101964C01F7019381F60193
:1009B00093FD859193FF81916F01882309F4ABC169
:1009C000853239F493FD859193FF81916F018532D2
:1009D00029F4B70190E00E94AB06E7CF512C312CEF
:1009E00020E02032A0F48B3269F030F4803259F0EC
:1009F000833269F420612CC08D3239F0803339F4B0
:100A0000216026C02260246023C0286021C027FD09
:100A100027C030ED380F3A3078F426FF06C0FAE0F0
:100A20005F9E300D1124532E13C08AE0389E300D86
:100A30001124332E20620CC08E3221F426FD6BC1AE
:100A4000206406C08C3611F4206802C0883641F458
:100A5000F60193FD859193FF81916F018111C1CFC3
:100A6000982F9F7D9554933028F40C5F1F4FFFE320
:100A7000F9830DC0833631F0833771F0833509F087
:100A80005BC022C0F801808189830E5F1F4F442420
:100A90004394512C540115C03801F2E06F0E711CC3
:100AA000F801A080B18026FF03C0652D70E002C070
:100AB0006FEF7FEFC5012C870E94A0062C018301F8
:100AC0002C852F77222E17C03801F2E06F0E711C93
:100AD000F801A080B18026FF03C0652D70E002C040
:100AE0006FEF7FEFC5012C870E9495062C012C85A6
:100AF0002068222E830123FC1BC0832D90E0481622
:100B00005906B0F4B70180E290E00E94AB063A9437
:100B1000F4CFF50127FC859127FE81915F01B70194
:100B200090E00E94AB0631103A94F1E04F1A510860
:100B30004114510471F7E5C0843611F0893639F556
:100B4000F80127FF07C060817181828193810C5F6A
:100B50001F4F08C060817181882777FD8095982F8D
:100B60000E5F1F4F2F76B22E97FF09C0909580958C
:100B7000709561957F4F8F4F9F4F2068B22E2AE06E
:100B800030E0A4010E94DD06A82EA81844C08537D5
:100B900029F42F7EB22E2AE030E025C0F22FF97F13
:100BA000BF2E8F36C1F018F4883579F0B4C0803785
:100BB00019F0883721F0AFC02F2F2061B22EB4FE7C
:100BC0000DC08B2D8460B82E09C024FF0AC09F2F52
:100BD0009660B92E06C028E030E005C020E130E084
:100BE00002C020E132E0F801B7FE07C060817181E8
:100BF000828193810C5F1F4F06C06081718180E00C
:100C000090E00E5F1F4FA4010E94DD06A82EA818D9
:100C1000FB2DFF77BF2EB6FE0BC02B2D2E7FA5140C
:100C200050F4B4FE0AC0B2FC08C02B2D2E7E05C0C5
:100C30007A2C2B2D03C07A2C01C0752C24FF0DC0FB
:100C4000FE01EA0DF11D8081803311F4297E09C077
:100C500022FF06C07394739404C0822F867809F033
:100C6000739423FD13C020FF06C05A2C731418F48C
:100C7000530C5718732C731468F4B70180E290E09A
:100C80002C870E94AB0673942C85F5CF731410F457
:100C9000371801C0312C24FF12C0B70180E390E067
:100CA0002C870E94AB062C8522FF17C021FF03C0B2
:100CB00088E590E002C088E790E0B7010CC0822F81
:100CC000867859F021FD02C080E201C08BE227FD49
:100CD0008DE2B70190E00E94AB06A51438F4B7018D
:100CE00080E390E00E94AB065A94F7CFAA94F401F7
:100CF000EA0DF11D8081B70190E00E94AB06A110C2
:100D0000F5CF332009F451CEB70180E290E00E9484
:100D1000AB063A94F6CFF7018681978102C08FEF38
:100D20009FEF2C96E2E10C945707FC01059061506F
:100D300070400110D8F7809590958E0F9F1F0895F1
:100D4000FC016150704001900110D8F7809590959A
:100D50008E0F9F1F08950F931F93CF93DF93182F2C
:100D6000092FEB018B8181FD03C08FEF9FEF20C026
:100D700082FF10C04E815F812C813D814217530755
:100D80007CF4E881F9819F012F5F3F4F39832883ED
:100D9000108306C0E885F985812F0995892B29F7ED
:100DA0002E813F812F5F3F4F3F832E83812F902FD6
:100DB000DF91CF911F910F910895FA01AA27283052
:100DC00051F1203181F1E8946F936E7F6E5F7F4F18
:100DD0008F4F9F4FAF4FB1E03ED0B4E03CD0670F94
:100DE000781F891F9A1FA11D680F791F8A1F911DE7
:100DF000A11D6A0F711D811D911DA11D20D009F437
:100E000068943F912AE0269F11243019305D319378
:100E1000DEF6CF010895462F4770405D4193B3E061
:100E20000FD0C9F7F6CF462F4F70405D4A3318F008
:100E3000495D31FD4052419302D0A9F7EACFB4E0B9
:100E4000A6959795879577956795BA95C9F7009771
:100E50006105710508959B01AC010A2E0694579512
:100E6000479537952795BA95C9F7620F731F841F69
:100E7000951FA01D08952F923F924F925F926F92FF
:100E80007F928F929F92AF92BF92CF92DF92EF921A
:100E9000FF920F931F93CF93DF93CDB7DEB7CA1B9B
:100EA000DB0B0FB6F894DEBF0FBECDBF09942A88C6
:100EB000398848885F846E847D848C849B84AA846E
:100EC000B984C884DF80EE80FD800C811B81AA81FB
:100ED000B981CE0FD11D0FB6F894DEBF0FBECDBFC6
:080EE000ED010895F894FFCF25
:100EE800012400250000000001000000000000AF00
:100EF8000100000000000200000000A00100000046
:100F080000960054686973206973207468652053DB
:100F180074617274006177616B6554696D653A201C
:100F2800256C64207C206C6173743A20256C643ACB
:100F3800200A00434C49434B006E6F773A20256CDA
:100F480064207C20006177616B6554696D653A2087
:100F5800256C64207C20007374617274536C656521
:100F6800705374696D653A20256C64207C20007488
:100F78006F74616C536C65657054696D653A2025B2
:100F88006C64207C200061637469766554696D65C2
:100F98003A20256C64207C200044757479204379BC
:100FA800636C653A20256C640A00574454006177E5
:0E0FB800616B6554696D653A20256C640A0012
:00000001FF
