:100000000C9434000C94FA000C9451000C945100A0
:100010000C9451000C9451000C94D4000C94510099
:100020000C9451000C9456010C9451000C94510006
:100030000C9451000C9451000C9451000C945100FC
:100040000C9451000C9451000C9451000C945100EC
:100050000C9451000C9451000C9451000C945100DC
:100060000C9451000C94510011241FBECFEFD8E026
:10007000DEBFCDBF11E0A0E0B1E0E6EEFEE002C0E1
:1000800005900D92A035B107D9F721E0A0E5B1E0C8
:1000900001C01D92A237B207E1F70E94A2010C94A1
:1000A00071070C940000CF92DF92EF92FF92CF93F2
:1000B000C091B20060915401709155018091560138
:1000C000909157010E947D032CE53FE842E851E4FE
:1000D0000E9409046B017C016C2F70E080E090E0CD
:1000E0000E947D032FE632E143E85DE30E940904AC
:1000F0009B01AC01C701B6010E94D9020E944503D1
:10010000CF91FF90EF90DF90CF900895E09107019D
:10011000F0910801882319F08081806202C08081FB
:100120008F7D8083089583B7817F826083BF8895A8
:100130000895F894A895E0E6F0E0808188618083D6
:1001400086E480830895529881E08DBBE9E6F0E073
:1001500080818E7F808380818260808310925801AD
:100160001092590110925A0110925B0110925C0199
:1001700010925D0110925E0110925F010895E1EB13
:10018000F0E08081876080831092B200E0E7F0E0C9
:1001900080818160808310925401109255011092E9
:1001A00056011092570108951F920F920FB60F92A9
:1001B00011242F933F934F935F936F937F938F936C
:1001C0009F93AF93BF93EF93FF938CE491E00E94D2
:1001D0008C04FF91EF91BF91AF919F918F917F918F
:1001E0006F915F914F913F912F910F900FBE0F90A4
:1001F0001F9018951F920F920FB60F921124CF9255
:10020000DF92EF92FF920F931F932F933F934F93A1
:100210005F936F937F938F939F93AF93BF93EF936E
:10022000FF930E94530000915C0110915D012091A9
:100230005E0130915F016B017C01C01AD10AE20AB4
:10024000F30A97018601083C11052105310540F0AC
:100250006093010170930201809303019093040164
:1002600060935C0170935D0180935E0190935F01E8
:10027000E0910701F0910801808180628083FF9105
:10028000EF91BF91AF919F918F917F916F915F910E
:100290004F913F912F911F910F91FF90EF90DF9021
:1002A000CF900F900FBE0F901F9018951F920F9236
:1002B0000FB60F9211248F939F93AF93BF938091AA
:1002C000540190915501A0915601B09157010196AA
:1002D000A11DB11D8093540190935501A093560127
:1002E000B0935701BF91AF919F918F910F900FBE27
:1002F0000F901F9018951092C50087E68093C40058
:10030000E0ECF0E080818D7F808386E08093C20006
:1003100088E18093C1000895CF93C82F8A3019F4E3
:100320008DE00E948C018091C00085FFFCCFC093BE
:10033000C600CF9108958091C00087FFFCCF8091C7
:10034000C6000895CF93DF93CDB7DEB728970FB6D9
:10035000F894DEBF0FBECDBFE0910501F09106011C
:100360008081806280830E94A3000E94BF000E945F
:100370007B0187E191E090936F0180936E0189E0AA
:1003800091E090936D0180936C0187E291E00E946F
:100390008C0483B7817F826083BF789480E090E093
:1003A000DC0109E311E040900101509002016090EE
:1003B00003017090040184159505A605B7050CF09E
:1003C00092C080E00E9486000E9453006B017C0175
:1003D0006093600170936101809362019093630167
:1003E0008090010190900201A0900301B09004015F
:1003F0008091500190915101A0915201B09153010F
:10040000A5019401281B390B4A0B5B0B2093640157
:1004100030936501409366015093670160916801D4
:100420007091690180916A0190916B012D833E83E7
:100430004F8358870E947D0369837A838B839C83D3
:100440002D813E814F815885CA01B9010E947D03EB
:100450009B01AC016CE57FE882E891E40E94D80240
:100460009B01AC0169817A818B819C810E94D902B8
:100470000E9445039B01AC01609368017093690180
:1004800080936A0190936B018A9489288A288B282B
:10049000E1F0A4E6B0E00E949C02A70196010E9450
:1004A0007D02DA01C9018C599F4FAF4FBF4FBF93F7
:1004B000AF939F938F931F930F930E9476040F9097
:1004C0000F900F900F900F900F900E945300609329
:1004D00050017093510180935201909353010E94F7
:1004E0009300D301C2012FEF30E742E021503040AA
:1004F0004040E1F700C0000056CF052E97FB1EF4E8
:1005000000940E94940257FD07D00E94A70207FCA6
:1005100003D04EF40C94940250954095309521955B
:100520003F4F4F4F5F4F089590958095709561951F
:100530007F4F8F4F9F4F08950E94C902A59F900D36
:10054000B49F900DA49F800D911D11240895A1E2E8
:100550001A2EAA1BBB1BFD010DC0AA1FBB1FEE1F3D
:10056000FF1FA217B307E407F50720F0A21BB30B88
:10057000E40BF50B661F771F881F991F1A9469F704
:1005800060957095809590959B01AC01BD01CF0160
:100590000895A29FB001B39FC001A39F700D811D5C
:1005A0001124911DB29F700D811D1124911D08957C
:1005B0005058BB27AA270E94F0020C94CF030E9438
:1005C000C10338F00E94C80320F039F49F3F19F4AA
:1005D00026F40C94BE030EF4E095E7FB0C94B803EC
:1005E000E92F0E94E00358F3BA17620773078407E4
:1005F000950720F079F4A6F50C9402040EF4E0952A
:100600000B2EBA2FA02D0B01B90190010C01CA01CC
:10061000A0011124FF27591B99F0593F50F4503E77
:1006200068F11A16F040A22F232F342F4427585F69
:10063000F3CF469537952795A795F0405395C9F781
:100640007EF41F16BA0B620B730B840BBAF0915039
:10065000A1F0FF0FBB1F661F771F881FC2F70EC0D8
:10066000BA0F621F731F841F48F4879577956795AB
:10067000B795F7959E3F08F0B0CF9395880F08F097
:100680009927EE0F9795879508950E944C036894DB
:10069000B1110C94030408950E94E80388F09F5759
:1006A00098F0B92F9927B751B0F0E1F0660F771F96
:1006B000881F991F1AF0BA95C9F714C0B13091F08C
:1006C0000E940204B1E008950C940204672F782F71
:1006D0008827B85F39F0B93FCCF386957795679551
:1006E000B395D9F73EF490958095709561957F4FBD
:1006F0008F4F9F4F0895E89409C097FB3EF4909563
:100700008095709561957F4F8F4F9F4F9923A9F0EA
:10071000F92F96E9BB279395F69587957795679579
:10072000B795F111F8CFFAF4BB0F11F460FF1BC0BD
:100730006F5F7F4F8F4F9F4F16C0882311F096E950
:1007400011C0772321F09EE8872F762F05C06623FE
:1007500071F096E8862F70E060E02AF09A95660FB7
:10076000771F881FDAF7880F9695879597F9089570
:1007700097F99F6780E870E060E008959FEF80EC54
:10078000089500240A9416161706180609060895F7
:1007900000240A9412161306140605060895092E5D
:1007A0000394000C11F4882352F0BB0F40F4BF2BCC
:1007B00011F460FF04C06F5F7F4F8F4F9F4F08950C
:1007C00057FD9058440F551F59F05F3F71F0479502
:1007D000880F97FB991F61F09F3F79F087950895E7
:1007E000121613061406551FF2CF4695F1DF08C006
:1007F000161617061806991FF1CF86957105610523
:1008000008940895E894BB2766277727CB0197F9CA
:1008100008950E941C040C94CF030E94C10338F079
:100820000E94C80320F0952311F00C94B8030C9497
:10083000BE0311240C9403040E94E00370F3959FFF
:10084000C1F3950F50E0551F629FF001729FBB27C7
:10085000F00DB11D639FAA27F00DB11DAA1F649F63
:100860006627B00DA11D661F829F2227B00DA11D16
:10087000621F739FB00DA11D621F839FA00D611D9C
:10088000221F749F3327A00D611D231F849F600DBD
:10089000211D822F762F6A2F11249F5750409AF0E6
:1008A000F1F088234AF0EE0FFF1FBB1F661F771F72
:1008B000881F91505040A9F79E3F510580F00C943D
:1008C000B8030C9403045F3FE4F3983ED4F3869599
:1008D00077956795B795F795E7959F5FC1F7FE2BDD
:1008E000880F911D9695879597F90895A0E0B0E03F
:1008F000ECE7F4E00C944A07AE014B5F5F4FFA015E
:1009000061917191AF0180916E0190916F010E9490
:10091000BC04E2E00C9466070F931F93CF93DF9320
:10092000E0916E01F0916F01238121FF1BC08C01CA
:10093000D0E0C0E0F80181918F0160916E0170916B
:100940006F01DB011896ED91FC911997882331F026
:100950000995892B79F3DFEFCFEFECCF8AE009958A
:10096000892B19F08FEF9FEF02C08D2F9C2FDF9105
:10097000CF911F910F910895ACE0B0E0E2ECF4E06C
:100980000C943A077C016B018A01FC0117821682E4
:10099000838181FFBDC1CE0101964C01F701938196
:1009A000F60193FD859193FF81916F01882309F4EE
:1009B000ABC1853239F493FD859193FF81916F012D
:1009C000853229F4B70190E00E94A406E7CF512CAC
:1009D000312C20E02032A0F48B3269F030F48032E8
:1009E00059F0833269F420612CC08D3239F08033A4
:1009F00039F4216026C02260246023C0286021C011
:100A000027FD27C030ED380F3A3078F426FF06C0B6
:100A1000FAE05F9E300D1124532E13C08AE0389EF9
:100A2000300D1124332E20620CC08E3221F426FDAD
:100A30006BC1206406C08C3611F4206802C0883671
:100A400041F4F60193FD859193FF81916F0181112E
:100A5000C1CF982F9F7D9554933028F40C5F1F4F82
:100A6000FFE3F9830DC0833631F0833771F08335AE
:100A700009F05BC022C0F801808189830E5F1F4F9F
:100A800044244394512C540115C03801F2E06F0EF8
:100A9000711CF801A080B18026FF03C0652D70E0B5
:100AA00002C06FEF7FEFC5012C870E9499062C01D1
:100AB00083012C852F77222E17C03801F2E06F0EAC
:100AC000711CF801A080B18026FF03C0652D70E085
:100AD00002C06FEF7FEFC5012C870E948E062C01AC
:100AE0002C852068222E830123FC1BC0832D90E0DF
:100AF00048165906B0F4B70180E290E00E94A406BF
:100B00003A94F4CFF50127FC859127FE81915F018E
:100B1000B70190E00E94A40631103A94F1E04F1A18
:100B200051084114510471F7E5C0843611F089363B
:100B300039F5F80127FF07C06081718182819381B7
:100B40000C5F1F4F08C060817181072E000C880B5D
:100B5000990B0E5F1F4F2F76722E97FF09C090954D
:100B60008095709561957F4F8F4F9F4F2068722EB3
:100B70002AE030E0A4010E94DC06A82EA81844C098
:100B8000853729F42F7EB22E2AE030E025C0F22FDF
:100B9000F97FBF2E8F36C1F018F4883579F0B4C0D4
:100BA000803719F0883721F0AFC02F2F2061B22E87
:100BB000B4FE0DC08B2D8460B82E09C024FF0AC07E
:100BC0009F2F9660B92E06C028E030E005C020E1D6
:100BD00030E002C020E132E0F801B7FE07C06081DA
:100BE0007181828193810C5F1F4F06C0608171818A
:100BF00080E090E00E5F1F4FA4010E94DC06A82E4B
:100C0000A818FB2DFF777F2E76FE0BC0372D3E7F79
:100C1000A51450F474FE0AC072FC08C0372D3E7E45
:100C200005C0BA2C372D03C0BA2C01C0B52C34FF37
:100C30000DC0FE01EA0DF11D8081803311F4397E73
:100C400009C032FF06C0B394B39404C0832F8678E2
:100C500009F0B39433FD13C030FF06C05A2CB3140F
:100C600018F4530C5B18B32CB31468F4B70180E28A
:100C700090E03C870E94A406B3943C85F5CFB31462
:100C800010F43B1801C0312C34FF12C0B70180E3CF
:100C900090E03C870E94A4063C8532FF17C031FDDE
:100CA00003C088E790E002C088E590E0B7010CC07F
:100CB000832F867859F031FF02C08BE201C080E2B9
:100CC00037FD8DE2B70190E00E94A406A51438F428
:100CD000B70180E390E00E94A4065A94F7CFAA944B
:100CE000F401EA0DF11D8081B70190E00E94A40695
:100CF000A110F5CF332009F451CEB70180E290E086
:100D00000E94A4063A94F6CFF7018681978102C02B
:100D10008FEF9FEF2C96E2E10C945607FC010590B3
:100D2000615070400110D8F7809590958E0F9F1FED
:100D30000895FC016150704001900110D8F7809532
:100D400090958E0F9F1F08950F931F93CF93DF935E
:100D5000FB01238121FD03C08FEF9FEF28C022FFFD
:100D600016C046815781248135814217530744F4C8
:100D7000A081B1819D012F5F3F4F318320838C93F0
:100D8000268137812F5F3F4F3783268310C0EB01C9
:100D9000092F182F0084F185E02D0995892BE1F6A4
:100DA0008E819F8101969F838E83812F902FDF916B
:100DB000CF911F910F910895FA01AA27283051F180
:100DC000203181F1E8946F936E7F6E5F7F4F8F4F7C
:100DD0009F4FAF4FB1E03ED0B4E03CD0670F781FDB
:100DE000891F9A1FA11D680F791F8A1F911DA11DC0
:100DF0006A0F711D811D911DA11D20D009F46894F9
:100E00003F912AE0269F11243019305D3193DEF6A0
:100E1000CF010895462F4770405D4193B3E00FD056
:100E2000C9F7F6CF462F4F70405D4A3318F0495D41
:100E300031FD4052419302D0A9F7EACFB4E0A69524
:100E40009795879577956795BA95C9F70097610546
:100E5000710508959B01AC010A2E0694579547959C
:100E600037952795BA95C9F7620F731F841F951F91
:100E7000A01D08952F923F924F925F926F927F92A2
:100E80008F929F92AF92BF92CF92DF92EF92FF929A
:100E90000F931F93CF93DF93CDB7DEB7CA1BDB0B46
:100EA0000FB6F894DEBF0FBECDBF09942A883988EB
:100EB00048885F846E847D848C849B84AA84B984F2
:100EC000C884DF80EE80FD800C811B81AA81B981FE
:100ED000CE0FD11D0FB6F894DEBF0FBECDBFED0112
:060EE0000895F894FFCF15
:100EE60001010000002400250000000001000000B0
:100EF6000000009B01000000000002000000008CC2
:100F06000100000000C800546869732069732074EA
:100F1600686520537461727400447574792043794E
:100F2600636C653A20256C6425250A0057445400F5
:00000001FF
