:100000000C9434000C94B6000C9451000C945100E4
:100010000C9451000C9451000C9451000C9451001C
:100020000C9451000C9451000C9451000C94350127
:100030000C9451000C9451000C9451000C945100FC
:100040000C9451000C9451000C9451000C945100EC
:100050000C9451000C9451000C9451000C945100DC
:100060000C9451000C94510011241FBECFEFD8E026
:10007000DEBFCDBF11E0A0E0B1E0E2E1FBE002C0F5
:1000800005900D92AC39B107D9F721E0ACE9B1E0A8
:1000900001C01D92A43AB207E1F70E948C010C94B2
:1000A00087050C940000CF93DF930E949D0264E0CB
:1000B00070E00E94CE01EC01892B11F4C1E0D0E088
:1000C000DF93CF9386E291E09F938F930E94AD02DE
:1000D0008AE090E00E94C302809181008D6080934D
:1000E000810020E83EE3C29FC001C39F900DD29FD4
:1000F000900D112490938900809388000F900F90A9
:100100000F900F90DF91CF910895E0910401F0914D
:100110000501882319F08081806202C080818F7D73
:1001200080830895882321F080916F00826003C04E
:1001300080916F008D7F80936F0008959B01AC01CB
:10014000A8EEB3E00E94100229E03DE340E050E059
:100150000E94E201CA01B9010895E0910001F09105
:100160000101808185FB882780F908951F920F92F5
:100170000FB60F9211242F933F934F935F936F937A
:100180007F938F939F93AF93BF93EF93FF93809150
:100190009D01811110C081E080939D0183E591E074
:1001A0009F938F930E94AD028AE090E00E94C30269
:1001B0000E94530047C00E94AD008823A1F18091A6
:1001C000840090918500181619066CF580E00E9455
:1001D00085002091840030918500A8EEB3E00E9454
:1001E000010229E03DE340E050E00E94E2015F931C
:1001F0004F933F932F938FE691E09F938F930E94AD
:10020000AD028AE090E00E94C3020E9453008091F8
:100210006F00826080936F000F900F900F900F908F
:100220000F900F9011C086E891E09F938F930E94EA
:10023000AD028AE090E00E94C30280E00E94850047
:1002400010929D010F900F90FF91EF91BF91AF9190
:100250009F918F917F916F915F914F913F912F91DE
:100260000F900FBE0F901F9018951F920F920FB610
:100270000F9211242F933F934F935F936F937F932C
:100280008F939F93AF93BF93EF93FF93E0910401FC
:10029000F091050180818062808310928500109228
:1002A000840080E00E949200FF91EF91BF91AF9196
:1002B0009F918F917F916F915F914F913F912F917E
:1002C0000F900FBE0F901F9018951092C50087E6F3
:1002D0008093C400E0ECF0E080818D7F808386E035
:1002E0008093C20088E18093C1000895CF93C82F06
:1002F0008A3019F48DE00E9476018091C00085FF5C
:10030000FCCFC093C600CF9108958091C00087FFB5
:10031000FCCF8091C60008950E94650184E191E0C0
:100320009093A1018093A00186E091E090939F01BA
:1003300080939E0188E391E09F938F930E94AD028A
:100340008AE090E00E94C302E0910201F091030173
:1003500080818062808352985A9A809169008E7F52
:100360008093690080916900826080936900E89AB7
:100370008091680081608093680080916B0081604B
:1003800080936B0080916F00826080936F0080E0AB
:100390000E94850078940F900F90FFCF97FB072E57
:1003A00016F4009407D077FD09D00E941B0207FCC9
:1003B00005D03EF4909581959F4F08957095619575
:1003C0007F4F0895052E97FB1EF400940E94F901BB
:1003D00057FD07D00E942F0207FC03D04EF40C9467
:1003E000F90150954095309521953F4F4F4F5F4F04
:1003F000089590958095709561957F4F8F4F9F4F91
:100400000895A29FB001B39FC001A39F700D811DED
:100410001124911DB29F700D811D1124911D08950D
:100420000E940102A59F900DB49F900DA49F800D86
:10043000911D11240895AA1BBB1B51E107C0AA1FDF
:10044000BB1FA617B70710F0A61BB70B881F991F75
:100450005A95A9F780959095BC01CD010895A1E228
:100460001A2EAA1BBB1BFD010DC0AA1FBB1FEE1F2E
:10047000FF1FA217B307E407F50720F0A21BB30B79
:10048000E40BF50B661F771F881F991F1A9469F7F5
:1004900060957095809590959B01AC01BD01CF0151
:1004A00008958F929F92AF92BF92CF92DF92EF9278
:1004B000FF92CF93DF93EC01688179818A819B81E0
:1004C000611571058105910521F464E279ED8BE5F3
:1004D00097E02DE133EF41E050E00E94E201490155
:1004E0005A019B01AC01A7EAB1E40E9410026B0122
:1004F0007C01ACEEB4EFA50194010E944B05DC0138
:10050000CB018C0D9D1DAE1DBF1DB7FF03C0019714
:10051000A109B04888839983AA83BB839F77DF9121
:10052000CF91FF90EF90DF90CF90BF90AF909F90D2
:100530008F9008950E945102089582E291E00E94F6
:1005400051020895A0E0B0E080932201909323012E
:10055000A0932401B09325010895A0E0B0E0E3EB5F
:10056000F2E00C946005AE014B5F5F4FFA016191C0
:100570007191AF018091A0019091A1010E94CA02E6
:10058000E2E00C947C056091A0017091A1010E94B1
:10059000B2040895ACE0B0E0E0EDF2E00C94500558
:1005A0007C016B018A01FC0117821682838181FF25
:1005B000BDC1CE0101964C01F7019381F60193FD77
:1005C000859193FF81916F01882309F4ABC1853236
:1005D00039F493FD859193FF81916F01853229F460
:1005E000B70190E00E94B204E7CF512C312C20E0FB
:1005F0002032A0F48B3269F030F4803259F083322B
:1006000069F420612CC08D3239F0803339F42160D7
:1006100026C02260246023C0286021C027FD27C097
:1006200030ED380F3A3078F426FF06C0FAE05F9ECE
:10063000300D1124532E13C08AE0389E300D112442
:10064000332E20620CC08E3221F426FD6BC1206453
:1006500006C08C3611F4206802C0883641F4F601D9
:1006600093FD859193FF81916F018111C1CF982FE7
:100670009F7D9554933028F40C5F1F4FFFE3F9835F
:100680000DC0833631F0833771F0833509F05BC0DC
:1006900022C0F801808189830E5F1F4F4424439458
:1006A000512C540115C03801F2E06F0E711CF80195
:1006B000A080B18026FF03C0652D70E002C06FEFFF
:1006C0007FEFC5012C870E94A7042C0183012C8594
:1006D0002F77222E17C03801F2E06F0E711CF8013F
:1006E000A080B18026FF03C0652D70E002C06FEFCF
:1006F0007FEFC5012C870E949C042C012C8520686B
:10070000222E830123FC1BC0832D90E0481659063E
:10071000B0F4B70180E290E00E94B2043A94F4CFC2
:10072000F50127FC859127FE81915F01B70190E0DB
:100730000E94B20431103A94F1E04F1A510841146A
:10074000510471F7E5C0843611F0893639F5F801A6
:1007500027FF07C060817181828193810C5F1F4FE9
:1007600008C060817181072E000C880B990B0E5F09
:100770001F4F2F76722E97FF09C090958095709528
:1007800061957F4F8F4F9F4F2068722E2AE030E097
:10079000A4010E94EA04A82EA81844C0853729F4B1
:1007A0002F7EB22E2AE030E025C0F22FF97FBF2E37
:1007B0008F36C1F018F4883579F0B4C0803719F05D
:1007C000883721F0AFC02F2F2061B22EB4FE0DC0AC
:1007D0008B2D8460B82E09C024FF0AC09F2F96601D
:1007E000B92E06C028E030E005C020E130E002C0AC
:1007F00020E132E0F801B7FE07C06081718182819B
:1008000093810C5F1F4F06C06081718180E090E092
:100810000E5F1F4FA4010E94EA04A82EA818FB2D0A
:10082000FF777F2E76FE0BC0372D3E7FA51450F448
:1008300074FE0AC072FC08C0372D3E7E05C0BA2C7B
:10084000372D03C0BA2C01C0B52C34FF0DC0FE01FA
:10085000EA0DF11D8081803311F4397E09C032FF29
:1008600006C0B394B39404C0832F867809F0B39480
:1008700033FD13C030FF06C05A2CB31418F4530CC8
:100880005B18B32CB31468F4B70180E290E03C87A6
:100890000E94B204B3943C85F5CFB31410F43B1816
:1008A00001C0312C34FF12C0B70180E390E03C87D7
:1008B0000E94B2043C8532FF17C031FD03C088E7B7
:1008C00090E002C088E590E0B7010CC0832F8678E5
:1008D00059F031FF02C08BE201C080E237FD8DE2AA
:1008E000B70190E00E94B204A51438F4B70180E388
:1008F00090E00E94B2045A94F7CFAA94F401EA0D52
:10090000F11D8081B70190E00E94B204A110F5CFE3
:10091000332009F451CEB70180E290E00E94B20486
:100920003A94F6CFF7018681978102C08FEF9FEF4F
:100930002C96E2E10C946C05FC010590615070402E
:100940000110D8F7809590958E0F9F1F0895FC0198
:100950006150704001900110D8F7809590958E0FEE
:100960009F1F08950F931F93CF93DF93FB01238164
:1009700021FD03C08FEF9FEF28C022FF16C04681E4
:100980005781248135814217530744F4A081B181F6
:100990009D012F5F3F4F318320838C9326813781C8
:1009A0002F5F3F4F3783268310C0EB01092F182F8D
:1009B0000084F185E02D0995892BE1F68E819F81D8
:1009C00001969F838E83812F902FDF91CF911F916E
:1009D0000F910895FA01AA27283051F1203181F1B1
:1009E000E8946F936E7F6E5F7F4F8F4F9F4FAF4F37
:1009F000B1E03ED0B4E03CD0670F781F891F9A1F4A
:100A0000A11D680F791F8A1F911DA11D6A0F711DFD
:100A1000811D911DA11D20D009F468943F912AE009
:100A2000269F11243019305D3193DEF6CF010895F1
:100A3000462F4770405D4193B3E00FD0C9F7F6CF22
:100A4000462F4F70405D4A3318F0495D31FD4052EA
:100A5000419302D0A9F7EACFB4E0A6959795879580
:100A600077956795BA95C9F700976105710508955F
:100A70009B01AC010A2E069457954795379527950B
:100A8000BA95C9F7620F731F841F951FA01D0895A3
:100A9000B7FF0C9410020E941002821B930B089562
:100AA0002F923F924F925F926F927F928F929F927E
:100AB000AF92BF92CF92DF92EF92FF920F931F936C
:100AC000CF93DF93CDB7DEB7CA1BDB0B0FB6F8941D
:100AD000DEBF0FBECDBF09942A88398848885F845D
:100AE0006E847D848C849B84AA84B984C884DF80CE
:100AF000EE80FD800C811B81AA81B981CE0FD11DB2
:100B00000FB6F894DEBF0FBECDBFED010895F89487
:020B1000FFCF15
:100B12002300240025000000000100000000000066
:100B220085010000000000020000000076010000C4
:100B320000000100000052616E646F6D204E756D01
:100B42006265723A202564005072657373204275A3
:100B520074746F6E20746F205374617274204761D5
:100B62006D650047616D652053746172746564211F
:100B720020476F6F64204C75636B2E203B29005217
:100B820065616374696F6E2074696D65203D20250F
:100B92006C64206D7300546F6F20536F6F6E212051
:0C0BA20047616D65204F766572210000F0
:00000001FF
