:100000000C9434000C9451000C9451000C94A300F7
:100010000C9451000C9451000C9451000C9451001C
:100020000C9451000C9451000C9451000C94070155
:100030000C9451000C9451000C9451000C945100FC
:100040000C9451000C9451000C9451000C945100EC
:100050000C9451000C9451000C9451000C945100DC
:100060000C9451000C94510011241FBECFEFD8E026
:10007000DEBFCDBF11E0A0E0B1E0E8EAFAE002C0E7
:1000800005900D92A438B107D9F721E0A4E8B1E0BA
:1000900001C01D92AC38B207E1F70E945E010C94DA
:1000A00052050C940000CF93DF930E940D0264E090
:1000B00070E00E949901EC01DF93CF9386E291E01A
:1000C0009F938F930E941D028AE090E00E9433026A
:1000D000E1E8F0E080818D60808320E83EE3C29F0C
:1000E000C001C39F900DD29F900D11249093890061
:1000F000809388000F900F900F900F90DF91CF9119
:100100000895E0910401F0910501882319F08081A0
:10011000806202C080818F7D80830895882321F0D2
:1001200080916F00826003C080916F008D7F80930B
:100130006F000895E0910001F0910101808185FB3D
:10014000882780F908951F920F920FB60F921124FD
:100150002F933F934F935F936F937F938F939F93CF
:10016000AF93BF93EF93FF93189B40C0809185019D
:10017000811112C081E08093850183E591E09F9316
:100180008F930E941D028AE090E00E9433020E9439
:1001900053000F900F902AC00E949A00882309F103
:1001A000809184009091850018161906D4F480E09F
:1001B0000E94810080918400909185009F938F938D
:1001C0008FE691E09F938F930E941D028AE090E05A
:1001D0000E9433020E9453000F900F900F900F90D7
:1001E00005C080916F00826080936F00FF91EF9156
:1001F000BF91AF919F918F917F916F915F914F913F
:100200003F912F910F900FBE0F901F9018951F9246
:100210000F920FB60F9211242F933F934F935F933A
:100220006F937F938F939F93AF93BF93EF93FF93BE
:10023000E0910401F0910501808180628083109239
:1002400085001092840080E00E948E00FF91EF9163
:10025000BF91AF919F918F917F916F915F914F91DE
:100260003F912F910F900FBE0F901F9018951092F5
:10027000C50087E68093C400E0ECF0E080818D7FCC
:10028000808386E08093C20088E18093C100089556
:10029000CF93C82F8A3019F48DE00E9448018091D5
:1002A000C00085FFFCCFC093C600CF910895809118
:1002B000C00087FFFCCF8091C60008950E943701DF
:1002C00084E191E0909389018093880186E091E038
:1002D000909387018093860188E391E09F938F93A9
:1002E0000E941D028AE090E00E943302E091020128
:1002F000F09103018081806280832098289A809108
:10030000680081608093680080916B0081608093B9
:100310006B0080916F00826080936F00E091040118
:10032000F091050180818F7D808378940F900F90EC
:10033000FFCF97FB072E16F4009407D077FD09D066
:100340000E94AD0107FC05D03EF4909581959F4F2A
:100350000895709561957F4F0895AA1BBB1B51E1CD
:1003600007C0AA1FBB1FA617B70710F0A61BB70B25
:10037000881F991F5A95A9F780959095BC01CD01CA
:1003800008958F929F92AF92BF92CF92DF92EF9299
:10039000FF92CF93DF93EC01688179818A819B8101
:1003A000611571058105910521F464E279ED8BE514
:1003B00097E02DE133EF41E050E00E94B80449019D
:1003C0005A019B01AC01A7EAB1E40E94D7046B017A
:1003D0007C01ACEEB4EFA50194010E94E504DC01C0
:1003E000CB018C0D9D1DAE1DBF1DB7FF03C0019736
:1003F000A109B04888839983AA83BB839F77DF9143
:10040000CF91FF90EF90DF90CF90BF90AF909F90F3
:100410008F9008950E94C101089582E291E00E94A8
:10042000C1010895A0E0B0E08093220190932301E0
:10043000A0932401B09325010895A0E0B0E0E3E289
:10044000F2E00C94FA04AE014B5F5F4FFA01619148
:100450007191AF0180918801909189010E943A02C7
:10046000E2E00C94160560918801709189010E9468
:1004700022040895ACE0B0E0E0E4F2E00C94EA0479
:100480007C016B018A01FC0117821682838181FF46
:10049000BDC1CE0101964C01F7019381F60193FD98
:1004A000859193FF81916F01882309F4ABC1853257
:1004B00039F493FD859193FF81916F01853229F481
:1004C000B70190E00E942204E7CF512C312C20E0AC
:1004D0002032A0F48B3269F030F4803259F083324C
:1004E00069F420612CC08D3239F0803339F42160F9
:1004F00026C02260246023C0286021C027FD27C0B9
:1005000030ED380F3A3078F426FF06C0FAE05F9EEF
:10051000300D1124532E13C08AE0389E300D112463
:10052000332E20620CC08E3221F426FD6BC1206474
:1005300006C08C3611F4206802C0883641F4F601FA
:1005400093FD859193FF81916F018111C1CF982F08
:100550009F7D9554933028F40C5F1F4FFFE3F98380
:100560000DC0833631F0833771F0833509F05BC0FD
:1005700022C0F801808189830E5F1F4F4424439479
:10058000512C540115C03801F2E06F0E711CF801B6
:10059000A080B18026FF03C0652D70E002C06FEF20
:1005A0007FEFC5012C870E9417042C0183012C8545
:1005B0002F77222E17C03801F2E06F0E711CF80160
:1005C000A080B18026FF03C0652D70E002C06FEFF0
:1005D0007FEFC5012C870E940C042C012C8520681C
:1005E000222E830123FC1BC0832D90E04816590660
:1005F000B0F4B70180E290E00E9422043A94F4CF74
:10060000F50127FC859127FE81915F01B70190E0FC
:100610000E94220431103A94F1E04F1A510841141B
:10062000510471F7E5C0843611F0893639F5F801C7
:1006300027FF07C060817181828193810C5F1F4F0A
:1006400008C060817181072E000C880B990B0E5F2A
:100650001F4F2F76722E97FF09C090958095709549
:1006600061957F4F8F4F9F4F2068722E2AE030E0B8
:10067000A4010E945A04A82EA81844C0853729F462
:100680002F7EB22E2AE030E025C0F22FF97FBF2E58
:100690008F36C1F018F4883579F0B4C0803719F07E
:1006A000883721F0AFC02F2F2061B22EB4FE0DC0CD
:1006B0008B2D8460B82E09C024FF0AC09F2F96603E
:1006C000B92E06C028E030E005C020E130E002C0CD
:1006D00020E132E0F801B7FE07C0608171818281BC
:1006E00093810C5F1F4F06C06081718180E090E0B4
:1006F0000E5F1F4FA4010E945A04A82EA818FB2DBC
:10070000FF777F2E76FE0BC0372D3E7FA51450F469
:1007100074FE0AC072FC08C0372D3E7E05C0BA2C9C
:10072000372D03C0BA2C01C0B52C34FF0DC0FE011B
:10073000EA0DF11D8081803311F4397E09C032FF4A
:1007400006C0B394B39404C0832F867809F0B394A1
:1007500033FD13C030FF06C05A2CB31418F4530CE9
:100760005B18B32CB31468F4B70180E290E03C87C7
:100770000E942204B3943C85F5CFB31410F43B18C7
:1007800001C0312C34FF12C0B70180E390E03C87F8
:100790000E9422043C8532FF17C031FD03C088E768
:1007A00090E002C088E590E0B7010CC0832F867806
:1007B00059F031FF02C08BE201C080E237FD8DE2CB
:1007C000B70190E00E942204A51438F4B70180E339
:1007D00090E00E9422045A94F7CFAA94F401EA0D03
:1007E000F11D8081B70190E00E942204A110F5CF95
:1007F000332009F451CEB70180E290E00E94220438
:100800003A94F6CFF7018681978102C08FEF9FEF70
:100810002C96E2E10C940605FC01059061507040B5
:100820000110D8F7809590958E0F9F1F0895FC01B9
:100830006150704001900110D8F7809590958E0F0F
:100840009F1F08950F931F93CF93DF93FB01238185
:1008500021FD03C08FEF9FEF28C022FF16C0468105
:100860005781248135814217530744F4A081B18117
:100870009D012F5F3F4F318320838C9326813781E9
:100880002F5F3F4F3783268310C0EB01092F182FAE
:100890000084F185E02D0995892BE1F68E819F81F9
:1008A00001969F838E83812F902FDF91CF911F918F
:1008B0000F910895FA01AA27283051F1203181F1D2
:1008C000E8946F936E7F6E5F7F4F8F4F9F4FAF4F58
:1008D000B1E03ED0B4E03CD0670F781F891F9A1F6B
:1008E000A11D680F791F8A1F911DA11D6A0F711D1F
:1008F000811D911DA11D20D009F468943F912AE02B
:10090000269F11243019305D3193DEF6CF01089512
:10091000462F4770405D4193B3E00FD0C9F7F6CF43
:10092000462F4F70405D4A3318F0495D31FD40520B
:10093000419302D0A9F7EACFB4E0A69597958795A1
:1009400077956795BA95C9F7009761057105089580
:100950009B01AC010A2E069457954795379527952C
:10096000BA95C9F7620F731F841F951FA01D0895C4
:10097000052E97FB1EF400940E94CF0457FD07D06C
:100980000E94210507FC03D04EF40C94CF0450952F
:100990004095309521953F4F4F4F5F4F089590956B
:1009A0008095709561957F4F8F4F9F4F08950E945E
:1009B0004305A59F900DB49F900DA49F800D911DA0
:1009C00011240895B7FF0C94D7040E94D704821B0A
:1009D000930B08952F923F924F925F926F927F9266
:1009E0008F929F92AF92BF92CF92DF92EF92FF923F
:1009F0000F931F93CF93DF93CDB7DEB7CA1BDB0BEB
:100A00000FB6F894DEBF0FBECDBF09942A8839888F
:100A100048885F846E847D848C849B84AA84B98496
:100A2000C884DF80EE80FD800C811B81AA81B981A2
:100A3000CE0FD11D0FB6F894DEBF0FBECDBFED01B6
:100A40000895A1E21A2EAA1BBB1BFD010DC0AA1F0F
:100A5000BB1FEE1FFF1FA217B307E407F50720F027
:100A6000A21BB30BE40BF50B661F771F881F991FA2
:100A70001A9469F760957095809590959B01AC01EB
:100A8000BD01CF010895A29FB001B39FC001A39FF4
:100A9000700D811D1124911DB29F700D811D1124B7
:080AA000911D0895F894FFCFA9
:100AA80023002400250000000001000000000000D1
:100AB800570100000000000200000000480100008B
:100AC80000000100000052616E646F6D204E756D6C
:100AD8006265723A2025640050726573732042750E
:100AE80074746F6E20746F20537461727420476140
:100AF8006D650047616D652053746172746564218A
:100B080020476F6F64204C75636B2E203B29005083
:100B180072657373656420696E3A20256420746970
:040B28006D650000F7
:00000001FF
