:100000000C9434000C94E9000C9451000C945100B1
:100010000C9451000C9451000C9451000C9451001C
:100020000C9451000C9451000C9451000C947A01E2
:100030000C9451000C9451000C9497010C945100B5
:100040000C9451000C9451000C9451000C945100EC
:100050000C9451000C9451000C9451000C945100DC
:100060000C9451000C94510011241FBECFEFD8E026
:10007000DEBFCDBF11E0A0E0B1E0E4E9FCE002C0EA
:1000800005900D92A23BB107D9F721E0A2EBB1E0B8
:1000900001C01D92AE3CB207E1F70E941B020C9416
:1000A00048060C94000080E187BD0895E0910401AA
:1000B000F0910501882319F08081806202C080815F
:1000C0008F7D80830895882321F080916E00826067
:1000D00003C080916E008D7F80936E0008950F9312
:1000E0001F938091BB019091BC01A091BD01B09183
:1000F000BE010091B7011091B8012091B901309172
:10010000BA01BC01CD01601B710B820B930B1F91D7
:100110000F910895E0910001F0910101808185FB2C
:10012000882780F908951092C2011092C30110929D
:10013000C4011092C50180E00E9456008091BB016D
:100140009091BC010E94D8020E94D30263E070E04B
:100150000E945F0201969093C1018093C0019F931A
:100160008F9386E291E09F938F930E94E30281E058
:100170008093C7011092850010928400EFE6F0E0B2
:100180008081826080834091C0015091C10120E84C
:100190003EE3429FC001439F900D529F900D11245A
:1001A00090938900809388008091BB019091BC015D
:1001B000A091BD01B091BE018093B7019093B801A9
:1001C000A093B901B093BA010F900F900F900F90C8
:1001D00008951F920F920FB60F9211240F931F9341
:1001E0002F933F934F935F936F937F938F939F933F
:1001F000AF93BF93EF93FF934091B2015091B3013E
:100200006091B4017091B5018091BB019091BC01E6
:10021000A091BD01B091BE01411551056105710567
:1002200061F08C019D01041B150B260B370B02336B
:100230001105210531050CF44AC08093B201909359
:10024000B301A093B401B093B5018091C6018111AF
:1002500012C081E08093C6011092C2011092C301C6
:100260001092C4011092C50184E591E00E94000340
:100270000E9493002CC00E948A008823E1F080E055
:100280000E9456000E946F009F938F937F936F93FD
:1002900080E791E09F938F930E94E3028AE090E0D1
:1002A0000E94F9020E9493000F900F900F900F9000
:1002B0000F900F900CC088E891E00E94000380E04E
:1002C0000E94560081E08093B6011092C601FF9112
:1002D000EF91BF91AF919F918F917F916F915F91BE
:1002E0004F913F912F911F910F910F900FBE0F9043
:1002F0001F9018951F920F920FB60F9211248F9393
:10030000EF93FF938091C701882349F0E0910401A6
:10031000F09105018081806280831092C701FF9176
:10032000EF918F910F900FBE0F901F9018951F9215
:100330000F920FB60F9211242F933F934F935F9319
:100340006F937F938F939F93AF93BF93EF93FF939D
:100350008091BB019091BC01A091BD01B091BE0103
:100360000196A11DB11D8093BB019093BC01A09388
:10037000BD01B093BE018091C2019091C301A091D3
:10038000C401B091C5010196A11DB11D8093C201A8
:100390009093C301A093C401B093C5012091C601FD
:1003A000222389F0843F9140A105B10561F48DE9D4
:1003B00091E00E94000380E00E94560081E080935B
:1003C000B6011092C601FF91EF91BF91AF919F913D
:1003D0008F917F916F915F914F913F912F910F90EE
:1003E0000FBE0F901F9018951092C50087E680935E
:1003F000C400E0ECF0E080818D7F808386E0809314
:10040000C20088E18093C1000895CF93C82F8A303D
:1004100019F48DE00E9405028091C00085FFFCCF99
:10042000C093C600CF9108958091C00087FFFCCF94
:100430008091C60008950E94F40184E191E09093B8
:10044000CB018093CA0186E091E09093C90180932B
:10045000C80189E391E00E940003E0910201F0915C
:10046000030180818062808352985A9A85B58D609D
:1004700085BD809181008D608093810080916900AD
:100480008E7F80936900809169008260809369000B
:10049000E89A8091680081608093680080916B0089
:1004A000816080936B0080916E00826080936E000B
:1004B00080E187BD80E00E9456007894FFCF97FBD3
:1004C000072E16F4009407D077FD09D00E9473021E
:1004D00007FC05D03EF4909581959F4F0895709547
:1004E00061957F4F0895AA1BBB1B51E107C0AA1F4E
:1004F000BB1FA617B70710F0A61BB70B881F991FC5
:100500005A95A9F780959095BC01CD0108958F92D9
:100510009F92AF92BF92CF92DF92EF92FF92CF93D2
:10052000DF93EC01688179818A819B816115710576
:100530008105910521F464E279ED8BE597E02DE1E9
:1005400033EF41E050E00E94AE0549015A019B01A2
:10055000AC01A7EAB1E40E94CD056B017C01ACEED1
:10056000B4EFA50194010E94DB05DC01CB018C0DE9
:100570009D1DAE1DBF1DB7FF03C00197A109B04867
:1005800088839983AA83BB839F77DF91CF91FF9064
:10059000EF90DF90CF90BF90AF909F908F90089595
:1005A0000E948702089582E291E00E9487020895E6
:1005B000A0E0B0E08093220190932301A093240156
:1005C000B09325010895A0E0B0E0E9EEF2E00C94CC
:1005D000F005AE014B5F5F4FFA0161917191AF0180
:1005E0008091CA019091CB010E943003E2E00C940B
:1005F0000C066091CA017091CB010E941805089504
:100600000F931F93CF93DF93E091CA01F091CB0139
:10061000238121FF1BC08C01D0E0C0E0F801819153
:100620008F016091CA017091CB01DB011896ED91A9
:10063000FC911997882331F00995892B79F3DFEF25
:10064000CFEFECCF8AE00995892B19F08FEF9FEF60
:1006500002C08D2F9C2FDF91CF911F910F91089594
:10066000ACE0B0E0E6E3F3E00C94E0057C016B0164
:100670008A01FC0117821682838181FFBDC1CE01F0
:1006800001964C01F7019381F60193FD859193FF4B
:1006900081916F01882309F4ABC1853239F493FD50
:1006A000859193FF81916F01853229F4B70190E024
:1006B0000E941805E7CF512C312C20E02032A0F405
:1006C0008B3269F030F4803259F0833269F4206162
:1006D0002CC08D3239F0803339F4216026C022607D
:1006E000246023C0286021C027FD27C030ED380FCB
:1006F0003A3078F426FF06C0FAE05F9E300D1124F0
:10070000532E13C08AE0389E300D1124332E206200
:100710000CC08E3221F426FD6BC1206406C08C36DD
:1007200011F4206802C0883641F4F60193FD8591EA
:1007300093FF81916F018111C1CF982F9F7D9554B7
:10074000933028F40C5F1F4FFFE3F9830DC083360D
:1007500031F0833771F0833509F05BC022C0F801B6
:10076000808189830E5F1F4F44244394512C540190
:1007700015C03801F2E06F0E711CF801A080B18045
:1007800026FF03C0652D70E002C06FEF7FEFC5014B
:100790002C870E940D052C0183012C852F77222E9A
:1007A00017C03801F2E06F0E711CF801A080B18013
:1007B00026FF03C0652D70E002C06FEF7FEFC5011B
:1007C0002C870E9402052C012C852068222E830193
:1007D00023FC1BC0832D90E048165906B0F4B701E6
:1007E00080E290E00E9418053A94F4CFF50127FCCE
:1007F000859127FE81915F01B70190E00E94180565
:1008000031103A94F1E04F1A51084114510471F734
:10081000E5C0843611F0893639F5F80127FF07C0A5
:1008200060817181828193810C5F1F4F08C060815C
:100830007181072E000C880B990B0E5F1F4F2F76CE
:10084000722E97FF09C090958095709561957F4FA6
:100850008F4F9F4F2068722E2AE030E0A4010E9443
:100860005005A82EA81844C0853729F42F7EB22E33
:100870002AE030E025C0F22FF97FBF2E8F36C1F07D
:1008800018F4883579F0B4C0803719F0883721F032
:10089000AFC02F2F2061B22EB4FE0DC08B2D84600F
:1008A000B82E09C024FF0AC09F2F9660B92E06C03B
:1008B00028E030E005C020E130E002C020E132E075
:1008C000F801B7FE07C060817181828193810C5F5E
:1008D0001F4F06C06081718180E090E00E5F1F4F66
:1008E000A4010E945005A82EA818FB2DFF777F2E8B
:1008F00076FE0BC0372D3E7FA51450F474FE0AC05F
:1009000072FC08C0372D3E7E05C0BA2C372D03C0BF
:10091000BA2C01C0B52C34FF0DC0FE01EA0DF11D4B
:100920008081803311F4397E09C032FF06C0B39450
:10093000B39404C0832F867809F0B39433FD13C0B9
:1009400030FF06C05A2CB31418F4530C5B18B32CA8
:10095000B31468F4B70180E290E03C870E94180568
:10096000B3943C85F5CFB31410F43B1801C0312C7F
:1009700034FF12C0B70180E390E03C870E94180565
:100980003C8532FF17C031FD03C088E790E002C00C
:1009900088E590E0B7010CC0832F867859F031FFCD
:1009A00002C08BE201C080E237FD8DE2B70190E02A
:1009B0000E941805A51438F4B70180E390E00E9466
:1009C00018055A94F7CFAA94F401EA0DF11D80811D
:1009D000B70190E00E941805A110F5CF332009F46B
:1009E00051CEB70180E290E00E9418053A94F6CF0C
:1009F000F7018681978102C08FEF9FEF2C96E2E18D
:100A00000C94FC05FC010590615070400110D8F772
:100A1000809590958E0F9F1F0895FC016150704046
:100A200001900110D8F7809590958E0F9F1F089523
:100A30000F931F93CF93DF93FB01238121FD03C00D
:100A40008FEF9FEF28C022FF16C046815781248177
:100A500035814217530744F4A081B1819D012F5F76
:100A60003F4F318320838C93268137812F5F3F4F07
:100A70003783268310C0EB01092F182F0084F185DE
:100A8000E02D0995892BE1F68E819F8101969F8348
:100A90008E83812F902FDF91CF911F910F91089519
:100AA000FA01AA27283051F1203181F1E8946F939F
:100AB0006E7F6E5F7F4F8F4F9F4FAF4FB1E03ED045
:100AC000B4E03CD0670F781F891F9A1FA11D680FE3
:100AD000791F8A1F911DA11D6A0F711D811D911D16
:100AE000A11D20D009F468943F912AE0269F11248B
:100AF0003019305D3193DEF6CF010895462F4770EF
:100B0000405D4193B3E00FD0C9F7F6CF462F4F7049
:100B1000405D4A3318F0495D31FD4052419302D0A7
:100B2000A9F7EACFB4E0A69597958795779567954D
:100B3000BA95C9F700976105710508959B01AC014D
:100B40000A2E06945795479537952795BA95C9F774
:100B5000620F731F841F951FA01D0895052E97FB1C
:100B60001EF400940E94C50557FD07D00E94170689
:100B700007FC03D04EF40C94C50550954095309574
:100B800021953F4F4F4F5F4F0895909580957095F9
:100B900061957F4F8F4F9F4F08950E943906A59F03
:100BA000900DB49F900DA49F800D911D1124089568
:100BB000B7FF0C94CD050E94CD05821B930B0895C1
:100BC0002F923F924F925F926F927F928F929F925D
:100BD000AF92BF92CF92DF92EF92FF920F931F934B
:100BE000CF93DF93CDB7DEB7CA1BDB0B0FB6F894FC
:100BF000DEBF0FBECDBF09942A88398848885F843C
:100C00006E847D848C849B84AA84B984C884DF80AC
:100C1000EE80FD800C811B81AA81B981CE0FD11D90
:100C20000FB6F894DEBF0FBECDBFED010895A1E26F
:100C30001A2EAA1BBB1BFD010DC0AA1FBB1FEE1F56
:100C4000FF1FA217B307E407F50720F0A21BB30BA1
:100C5000E40BF50B661F771F881F991F1A9469F71D
:100C600060957095809590959B01AC01BD01CF0179
:100C70000895A29FB001B39FC001A39F700D811D75
:100C80001124911DB29F700D811D1124911D089595
:040C9000F894FFCF06
:100C940023002400250000000001000000000000E3
:100CA4001402000000000002000000000502000021
:100CB40000000100000052616E646F6D204E756D7E
:100CC4006265723A2025640A00507265737320428B
:100CD4007574746F6E20746F20537461727420473E
:100CE400616D650047616D6520537461727465645C
:100CF4002120476F6F64204C75636B2E203B2900C5
:100D04005265616374696F6E2074696D65203D205E
:100D1400256C64206D730A00546F6F20536F6F6EDF
:100D2400212047616D65204F7665722100536F2045
:100D3400536C6F77212047616D65204F7665722172
:020D44000000AD
:00000001FF
