:100000000C9434000C94E7000C9451000C945100B3
:100010000C9451000C9451000C9451000C9451001C
:100020000C9451000C9451000C9451000C947801E4
:100030000C9451000C9451000C9495010C945100B7
:100040000C9451000C9451000C9451000C945100EC
:100050000C9451000C9451000C9451000C945100DC
:100060000C9451000C94510011241FBECFEFD8E026
:10007000DEBFCDBF11E0A0E0B1E0EAE7FCE002C0E6
:1000800005900D92A23BB107D9F711E0A2EBB1E0C8
:1000900001C01D92AE3CB107E1F70E9419020C9419
:1000A0003B060C94000080E187BD0895E0910401B7
:1000B000F0910501882319F08081806202C080815F
:1000C0008F7D80830895882321F080916E00826067
:1000D00003C080916E008D7F80936E0008950F9312
:1000E0001F936091BB017091BC018091BD01909103
:1000F000BE010091B7011091B8012091B901309172
:10010000BA01601B710B820B930B1F910F91089525
:10011000E0910001F0910101808185FB882780F941
:1001200008951092BF011092C0011092C101109267
:10013000C20180E00E9456008091BB019091BC01F9
:100140000E94D6020E94D10263E070E00E945B022E
:1001500001969093C5018093C4019F938F9386E28B
:1001600091E09F938F930E94E10281E08093C70109
:100170001092850010928400EFE6F0E080818260AA
:1001800080834091C4015091C50120E83EE3429F25
:10019000C001439F900D529F900D112490938900B0
:1001A000809388008091BB019091BC01A091BD011A
:1001B000B091BE018093B7019093B801A093B901AB
:1001C000B093BA010F900F900F900F9008951F9267
:1001D0000F920FB60F9211240F931F932F933F93FB
:1001E0004F935F936F937F938F939F93AF93BF933F
:1001F000EF93FF934091B2015091B3016091B4012C
:100200007091B5018091BB019091BC01A091BD019D
:10021000B091BE01411551056105710561F08C0178
:100220009D01041B150B260B370B0233110521050D
:1002300031050CF44AC08093B2019093B301A093AE
:10024000B401B093B5018091C601811112C081E063
:100250008093C6011092BF011092C0011092C1019B
:100260001092C20184E591E00E94FC020E9491007C
:100270002CC00E9488008823E1F080E00E94560094
:100280000E946F009F938F937F936F9380E791E01D
:100290009F938F930E94E1028AE090E00E94F50212
:1002A0000E9491000F900F900F900F900F900F9061
:1002B0000CC088E891E00E94FC0280E00E94560099
:1002C00081E08093B6011092C601FF91EF91BF913A
:1002D000AF919F918F917F916F915F914F913F91DE
:1002E0002F911F910F910F900FBE0F901F90189597
:1002F0001F920F920FB60F9211248F93EF93FF93DB
:100300008091C701882349F0E0910401F091050133
:100310008081806280831092C701FF91EF918F915D
:100320000F900FBE0F901F9018951F920F920FB64F
:100330000F9211242F933F934F935F936F937F936B
:100340008F939F93AF93BF93EF93FF938091BB01E4
:100350009091BC01A091BD01B091BE010196A11D7B
:10036000B11D8093BB019093BC01A093BD01B093DC
:10037000BE018091BF019091C001A091C101B091D7
:10038000C2010196A11DB11D8093BF019093C001D0
:10039000A093C101B093C2012091C601222389F02C
:1003A000843F9140A105B10561F48DE991E00E947F
:1003B000FC0280E00E94560081E08093B60110921A
:1003C000C601FF91EF91BF91AF919F918F917F9166
:1003D0006F915F914F913F912F910F900FBE0F90B2
:1003E0001F9018951092C50087E68093C400E0EC3A
:1003F000F0E080818D7F808386E08093C20088E179
:100400008093C1000895CF93C82F8A3019F48DE0EE
:100410000E9403028091C00085FFFCCFC093C600FC
:10042000CF9108958091C00087FFFCCF8091C600D6
:1004300008950E94F20184E191E09093CB018093B2
:10044000CA0186E091E09093C9018093C80189E3D5
:1004500091E00E94FC02E0910201F0910301808191
:100460008062808352985A9A85B58D6085BD80914F
:1004700081008D6080938100809169008E7F8093E0
:10048000690080916900826080936900E89A809198
:10049000680081608093680080916B008160809328
:1004A0006B0081E00E94630080E187BD80E00E94D4
:1004B00056007894FFCF97FB072E16F4009407D0D0
:1004C00077FD09D00E946F0207FC05D03EF490959D
:1004D00081959F4F0895709561957F4F0895AA1B50
:1004E000BB1B51E107C0AA1FBB1FA617B70710F01F
:1004F000A61BB70B881F991F5A95A9F78095909551
:10050000BC01CD0108958F929F92AF92BF92CF927E
:10051000DF92EF92FF92CF93DF93EC0168817981B4
:100520008A819B81611571058105910521F464E241
:1005300079ED8BE597E02DE133EF41E050E00E944B
:10054000B40549015A019B01AC01A7EAB1E40E943C
:10055000A1056B017C01ACEEB4EFA50194010E94F2
:10056000AF05C60ED71EE81EF91EF7FE06C081E0D5
:10057000C81AD108E10880E8F80AC882D982EA825C
:10058000FB82C6019F77DF91CF91FF90EF90DF90C4
:10059000CF90BF90AF909F908F9008950E9483025C
:1005A000089582E291E00E9483020895A0E0B0E005
:1005B0008093220190932301A0932401B0932501FD
:1005C0000895A0E0B0E0E7EEF2E00C94E305FE0150
:1005D000359661917191AF018091CA019091CB01E3
:1005E0000E942903E2E00C94FF056091CA0170911A
:1005F000CB010E94110508950F931F93CF93DF93B2
:10060000E091CA01F091CB01238121FF1BC0EC01D5
:1006100000E010E089916091CA017091CB01DB018B
:100620001896ED91FC911997882331F00995892B43
:1006300089F30FEF1FEFEECF8AE00995892B11F4B4
:10064000C80102C08FEF9FEFDF91CF911F910F91F3
:100650000895ACE0B0E0EFE2F3E00C94D3057C0148
:100660006B018A01FC0117821682838181FFBDC163
:10067000CE0101964C01F7019381F60193FD85911E
:1006800093FF81916F01882309F4ABC1853239F45E
:1006900093FD859193FF81916F01853229F4B70114
:1006A00090E00E941105E7CF512C312C20E0203240
:1006B000A0F48B3269F030F4803259F0833269F45F
:1006C00020612CC08D3239F0803339F4216026C08E
:1006D0002260246023C0286021C027FD27C030EDA0
:1006E000380F3A3078F426FF06C0FAE05F9E300DEE
:1006F0001124532E13C08AE0389E300D1124332E5E
:1007000020620CC08E3221F426FD6BC1206406C02D
:100710008C3611F4206802C0883641F4F60193FD4E
:10072000859193FF81916F018111C1CF982F9F7D9A
:100730009554933028F40C5F1F4FFFE3F9830DC0ED
:10074000833631F0833771F0833509F05BC022C006
:10075000F801808189830E5F1F4F44244394512CFC
:10076000540115C03801F2E06F0E711CF801A08031
:10077000B18026FF03C0652D70E002C06FEF7FEFF0
:10078000C5012C870E9406052C0183012C852F773B
:10079000222E17C03801F2E06F0E711CF801A08004
:1007A000B18026FF03C0652D70E002C06FEF7FEFC0
:1007B000C5012C870E94FB042C012C852068222E69
:1007C000830123FC1BC0832D90E048165906B0F42A
:1007D000B70180E290E00E9411053A94F4CFF50150
:1007E00027FC859127FE81915F01B70190E00E946F
:1007F000110531103A94F1E04F1A51084114510497
:1008000071F7E5C0843611F0893639F5F80127FF14
:1008100007C060817181828193810C5F1F4F08C086
:1008200060817181882777FD8095982F0E5F1F4F1B
:100830002F76B22E97FF09C090958095709561959F
:100840007F4F8F4F9F4F2068B22E2AE030E0A401E7
:100850000E944305A82EA81844C0853729F42F7E8E
:10086000B22E2AE030E025C0F22FF97FBF2E8F365E
:10087000C1F018F4883579F0B4C0803719F08837A2
:1008800021F0AFC02F2F2061B22EB4FE0DC08B2DF2
:100890008460B82E09C024FF0AC09F2F9660B92E2D
:1008A00006C028E030E005C020E130E002C020E1D1
:1008B00032E0F801B7FE07C06081718182819381C7
:1008C0000C5F1F4F06C06081718180E090E00E5F79
:1008D0001F4FA4010E944305A82EA818FB2DFF77E7
:1008E000BF2EB6FE0BC02B2D2E7FA51450F4B4FEE8
:1008F0000AC0B2FC08C02B2D2E7E05C07A2C2B2DF1
:1009000003C07A2C01C0752C24FF0DC0FE01EA0D36
:10091000F11D8081803311F4297E09C022FF06C0B9
:100920007394739404C0822F867809F0739423FD26
:1009300013C020FF06C05A2C731418F4530C571818
:10094000732C731468F4B70180E290E02C870E9446
:10095000110573942C85F5CF731410F4371801C06A
:10096000312C24FF12C0B70180E390E02C870E9455
:1009700011052C8522FF17C021FF03C088E590E0F8
:1009800002C088E790E0B7010CC0822F867859F04A
:1009900021FD02C080E201C08BE227FD8DE2B7019C
:1009A00090E00E941105A51438F4B70180E390E0AF
:1009B0000E9411055A94F7CFAA94F401EA0DF11D93
:1009C0008081B70190E00E941105A110F5CF33207E
:1009D00009F451CEB70180E290E00E9411053A94EB
:1009E000F6CFF7018681978102C08FEF9FEF2C969B
:1009F000E2E10C94EF05FC0105906150704001109C
:100A0000D8F7809590958E0F9F1F0895FC01615037
:100A1000704001900110D8F7809590958E0F9F1F20
:100A200008950F931F93CF93DF93182F092FEB0196
:100A30008B8181FD03C08FEF9FEF20C082FF10C02C
:100A40004E815F812C813D81421753077CF4E88100
:100A5000F9819F012F5F3F4F39832883108306C0A0
:100A6000E885F985812F0995892B29F72E813F810A
:100A70002F5F3F4F3F832E83812F902FDF91CF91A8
:100A80001F910F910895FA01AA27283051F12031C2
:100A900081F1E8946F936E7F6E5F7F4F8F4F9F4F12
:100AA000AF4FB1E03ED0B4E03CD0670F781F891F54
:100AB0009A1FA11D680F791F8A1F911DA11D6A0F22
:100AC000711D811D911DA11D20D009F468943F91D5
:100AD0002AE0269F11243019305D3193DEF6CF01D4
:100AE0000895462F4770405D4193B3E00FD0C9F79A
:100AF000F6CF462F4F70405D4A3318F0495D31FD07
:100B00004052419302D0A9F7EACFB4E0A695979559
:100B1000879577956795BA95C9F70097610571052F
:100B200008959B01AC010A2E069457954795379579
:100B30002795BA95C9F7620F731F841F951FA01DD3
:100B400008950E940A06A59F900DB49F900DA49F42
:100B5000800D911D11240895B7FF0C94A1050E94EA
:100B6000A105821B930B0895052E97FB1EF400949C
:100B70000E94CB0557FD07D00E94190607FC03D041
:100B80004EF40C94CB0550954095309521953F4FF0
:100B90004F4F5F4F089590958095709561957F4F69
:100BA0008F4F9F4F08952F923F924F925F926F9277
:100BB0007F928F929F92AF92BF92CF92DF92EF92ED
:100BC000FF920F931F93CF93DF93CDB7DEB7CA1B6E
:100BD000DB0B0FB6F894DEBF0FBECDBF09942A8899
:100BE000398848885F846E847D848C849B84AA8441
:100BF000B984C884DF80EE80FD800C811B81AA81CE
:100C0000B981CE0FD11D0FB6F894DEBF0FBECDBF98
:100C1000ED010895A29FB001B39FC001A39F700D85
:100C2000811D1124911DB29F700D811D1124911DF4
:100C30000895A1E21A2EAA1BBB1BFD010DC0AA1F1D
:100C4000BB1FEE1FFF1FA217B307E407F50720F035
:100C5000A21BB30BE40BF50B661F771F881F991FB0
:100C60001A9469F760957095809590959B01AC01F9
:0A0C7000BD01CF010895F894FFCFF5
:100C7A0023002400250000000001000000000000FD
:100C8A00120200000000000200000000030200003F
:100C9A0000000100000052616E646F6D204E756D98
:100CAA006265723A2025640A0050726573732042A5
:100CBA007574746F6E20746F205374617274204758
:100CCA00616D650047616D65205374617274656476
:100CDA002120476F6F64204C75636B2E203B2900DF
:100CEA005265616374696F6E2074696D65203D2079
:100CFA00256C64206D730A00546F6F20536F6F6EFA
:100D0A00212047616D65204F7665722100536F205F
:100D1A00536C6F77212047616D65204F766572218C
:020D2A000000C7
:00000001FF
