:100000000C9434000C9451000C9451000C94B600E4
:100010000C9451000C9451000C9451000C9451001C
:100020000C9451000C9451000C9451000C943A0122
:100030000C9451000C9451000C9451000C945100FC
:100040000C9451000C9451000C9451000C945100EC
:100050000C9451000C9451000C9451000C945100DC
:100060000C9451000C94510011241FBECFEFD8E026
:10007000DEBFCDBF11E0A0E0B1E0EAEFFAE002C0E0
:1000800005900D92AC39B107D9F711E0ACE9B1E0B8
:1000900001C01D92A43AB107E1F70E9491010C94AE
:1000A0007B050C940000CF93DF930E94990264E0DB
:1000B00070E00E94E201EC01DF93CF9386E291E0D1
:1000C0009F938F930E94A9028AE090E00E94BD0254
:1000D0000F900F900F900F90209711F4C1E0D0E097
:1000E000809181008D608093810020E83EE3C29F73
:1000F000C001C39F900DD29F900D11249093890051
:1001000080938800DF91CF910895E0910401F091F0
:100110000501882319F08081806202C080818F7D73
:1001200080830895882321F080916F00826003C04E
:1001300080916F008D7F80936F0008959B01AC01CB
:10014000A8EEB3E00E94D70129E03DE340E050E093
:100150000E94F601CA01B9010895E0910001F091F1
:100160000101808185FB882780F908951F920F92F5
:100170000FB60F9211242F933F934F935F936F937A
:100180007F938F939F93AF93BF93EF93FF93189BAE
:100190005AC080919D01811112C081E080939D0120
:1001A00083E591E09F938F930E94A9028AE090E0FB
:1001B0000E94BD020E9453000F900F904AC00E94FF
:1001C000AD008823A1F180918400909185001816DC
:1001D00019066CF580E00E94850020918400309122
:1001E0008500A8EEB3E00E94C80129E03DE340E0AD
:1001F00050E00E94F6015F934F933F932F938FE659
:1002000091E09F938F930E94A9028AE090E00E9460
:10021000BD020E94530080916F00826080936F0046
:100220000F900F900F900F900F900F900CC086E8DA
:1002300091E09F938F930E94A9028AE090E00E9430
:10024000BD020F900F908BE49DE10197F1F700C084
:100250000000FF91EF91BF91AF919F918F917F919E
:100260006F915F914F913F912F910F900FBE0F9023
:100270001F9018951F920F920FB60F9211242F9373
:100280003F934F935F936F937F938F939F93AF931E
:10029000BF93EF93FF93E0910401F09105018081FA
:1002A00080628083109285001092840080E00E941A
:1002B0009200FF91EF91BF91AF919F918F917F91AC
:1002C0006F915F914F913F912F910F900FBE0F90C3
:1002D0001F9018951092C50087E68093C400E0EC4B
:1002E000F0E080818D7F808386E08093C20088E18A
:1002F0008093C1000895CF93C82F8A3019F48DE000
:100300000E947B018091C00085FFFCCFC093C60096
:10031000CF9108958091C00087FFFCCF8091C600E7
:1003200008950E946A0184E191E09093A101809375
:10033000A00186E091E090939F0180939E0188E365
:1003400091E09F938F930E94A9028AE090E00E941F
:10035000BD02E0910201F0910301808180628083FF
:100360002098289A8091680081608093680080912D
:100370006B00816080936B0080916F00826080933E
:100380006F0080E00E94850078940F900F90FFCF5F
:10039000A29FB001B39FC001A39F700D811D1124C6
:1003A000911DB29F700D811D1124911D08950E9411
:1003B000C801A59F900DB49F900DA49F800D911D25
:1003C0001124089597FB072E16F4009407D077FDAB
:1003D00009D00E94150207FC05D03EF49095819546
:1003E0009F4F0895709561957F4F0895052E97FB57
:1003F0001EF400940E940D0257FD07D00E942902AE
:1004000007FC03D04EF40C940D02509540953095A6
:1004100021953F4F4F4F5F4F089590958095709570
:1004200061957F4F8F4F9F4F0895AA1BBB1B51E1D2
:1004300007C0AA1FBB1FA617B70710F0A61BB70B54
:10044000881F991F5A95A9F780959095BC01CD01F9
:100450000895A1E21A2EAA1BBB1BFD010DC0AA1F05
:10046000BB1FEE1FFF1FA217B307E407F50720F01D
:10047000A21BB30BE40BF50B661F771F881F991F98
:100480001A9469F760957095809590959B01AC01E1
:10049000BD01CF0108958F929F92AF92BF92CF92EC
:1004A000DF92EF92FF92CF93DF93EC016881798125
:1004B0008A819B81611571058105910521F464E2B2
:1004C00079ED8BE597E02DE133EF41E050E00E94BC
:1004D000F60149015A019B01AC01A7EAB1E40E946F
:1004E000D7016B017C01ACEEB4EFA50194010E9431
:1004F0003F05C60ED71EE81EF91EF7FE06C081E0B6
:10050000C81AD108E10880E8F80AC882D982EA82CC
:10051000FB82C6019F77DF91CF91FF90EF90DF9034
:10052000CF90BF90AF909F908F9008950E944B0204
:10053000089582E291E00E944B020895A0E0B0E0AD
:100540008093220190932301A0932401B09325016D
:100550000895A0E0B0E0EFEAF2E00C945405FE014B
:10056000359661917191AF018091A0019091A101A7
:100570000E94C402E2E00C9470056091A0017091A9
:10058000A1010E94AC040895ACE0B0E0EAECF2E016
:100590000C9444057C016B018A01FC0117821682D0
:1005A000838181FFBDC1CE0101964C01F70193818A
:1005B000F60193FD859193FF81916F01882309F4E2
:1005C000ABC1853239F493FD859193FF81916F0121
:1005D000853229F4B70190E00E94AC04E7CF512C9A
:1005E000312C20E02032A0F48B3269F030F48032DC
:1005F00059F0833269F420612CC08D3239F0803398
:1006000039F4216026C02260246023C0286021C004
:1006100027FD27C030ED380F3A3078F426FF06C0AA
:10062000FAE05F9E300D1124532E13C08AE0389EED
:10063000300D1124332E20620CC08E3221F426FDA1
:100640006BC1206406C08C3611F4206802C0883665
:1006500041F4F60193FD859193FF81916F01811122
:10066000C1CF982F9F7D9554933028F40C5F1F4F76
:10067000FFE3F9830DC0833631F0833771F08335A2
:1006800009F05BC022C0F801808189830E5F1F4F93
:1006900044244394512C540115C03801F2E06F0EEC
:1006A000711CF801A080B18026FF03C0652D70E0A9
:1006B00002C06FEF7FEFC5012C870E94A1042C01BF
:1006C00083012C852F77222E17C03801F2E06F0EA0
:1006D000711CF801A080B18026FF03C0652D70E079
:1006E00002C06FEF7FEFC5012C870E9496042C019A
:1006F0002C852068222E830123FC1BC0832D90E0D3
:1007000048165906B0F4B70180E290E00E94AC04AC
:100710003A94F4CFF50127FC859127FE81915F0182
:10072000B70190E00E94AC0431103A94F1E04F1A06
:1007300051084114510471F7E5C0843611F089362F
:1007400039F5F80127FF07C06081718182819381AB
:100750000C5F1F4F08C060817181882777FD8095ED
:10076000982F0E5F1F4F2F76B22E97FF09C09095DE
:100770008095709561957F4F8F4F9F4F2068B22E67
:100780002AE030E0A4010E94DE04A82EA81844C08C
:10079000853729F42F7EB22E2AE030E025C0F22FD3
:1007A000F97FBF2E8F36C1F018F4883579F0B4C0C8
:1007B000803719F0883721F0AFC02F2F2061B22E7B
:1007C000B4FE0DC08B2D8460B82E09C024FF0AC072
:1007D0009F2F9660B92E06C028E030E005C020E1CA
:1007E00030E002C020E132E0F801B7FE07C06081CE
:1007F0007181828193810C5F1F4F06C0608171817E
:1008000080E090E00E5F1F4FA4010E94DE04A82E3E
:10081000A818FB2DFF77BF2EB6FE0BC02B2D2E7F09
:10082000A51450F4B4FE0AC0B2FC08C02B2D2E7ED5
:1008300005C07A2C2B2D03C07A2C01C0752C24FF07
:100840000DC0FE01EA0DF11D8081803311F4297E77
:1008500009C022FF06C07394739404C0822F867867
:1008600009F0739423FD13C020FF06C05A2C7314A3
:1008700018F4530C5718732C731468F4B70180E202
:1008800090E02C870E94AC0473942C85F5CF7314F0
:1008900010F4371801C0312C24FF12C0B70180E3D7
:1008A00090E02C870E94AC042C8522FF17C021FF0A
:1008B00003C088E590E002C088E790E0B7010CC073
:1008C000822F867859F021FD02C080E201C08BE2C0
:1008D00027FD8DE2B70190E00E94AC04A51438F426
:1008E000B70180E390E00E94AC045A94F7CFAA9439
:1008F000F401EA0DF11D8081B70190E00E94AC0483
:10090000A110F5CF332009F451CEB70180E290E079
:100910000E94AC043A94F6CFF7018681978102C019
:100920008FEF9FEF2C96E2E10C946005FC0105909F
:10093000615070400110D8F7809590958E0F9F1FE1
:100940000895FC016150704001900110D8F7809526
:1009500090958E0F9F1F08950F931F93CF93DF9352
:10096000182F092FEB018B8181FD03C08FEF9FEFC3
:1009700020C082FF10C04E815F812C813D814217D3
:1009800053077CF4E881F9819F012F5F3F4F398342
:100990002883108306C0E885F985812F0995892B66
:1009A00029F72E813F812F5F3F4F3F832E83812F79
:1009B000902FDF91CF911F910F910895FA01AA27EF
:1009C000283051F1203181F1E8946F936E7F6E5F92
:1009D0007F4F8F4F9F4FAF4FB1E03ED0B4E03CD040
:1009E000670F781F891F9A1FA11D680F791F8A1F23
:1009F000911DA11D6A0F711D811D911DA11D20D08A
:100A000009F468943F912AE0269F11243019305D43
:100A10003193DEF6CF010895462F4770405D419334
:100A2000B3E00FD0C9F7F6CF462F4F70405D4A3381
:100A300018F0495D31FD4052419302D0A9F7EACF49
:100A4000B4E0A6959795879577956795BA95C9F778
:100A500000976105710508959B01AC010A2E06946B
:100A60005795479537952795BA95C9F7620F731F24
:100A7000841F951FA01D0895B7FF0C94D7010E94F5
:100A8000D701821B930B08952F923F924F925F9252
:100A90006F927F928F929F92AF92BF92CF92DF928E
:100AA000EF92FF920F931F93CF93DF93CDB7DEB7F3
:100AB000CA1BDB0B0FB6F894DEBF0FBECDBF099487
:100AC0002A88398848885F846E847D848C849B84DE
:100AD000AA84B984C884DF80EE80FD800C811B81EC
:100AE000AA81B981CE0FD11D0FB6F894DEBF0FBE1B
:0A0AF000CDBFED010895F894FFCF8B
:100AFA00230024002500000000010000000000007F
:100B0A008A01000000000002000000007B010000D2
:100B1A0000000100000052616E646F6D204E756D19
:100B2A006265723A202564005072657373204275BB
:100B3A0074746F6E20746F205374617274204761ED
:100B4A006D650047616D6520537461727465642137
:100B5A0020476F6F64204C75636B2E203B2900522F
:100B6A0065616374696F6E2074696D65203D202527
:100B7A006C64206D7300546F6F20536F6F6E212069
:0C0B8A0047616D65204F76657221000008
:00000001FF
